{
  "contractName": "Diamonds",
  "abi": [
    {
      "constant": true,
      "inputs": [
        {
          "name": "",
          "type": "uint256"
        }
      ],
      "name": "allDiamonds",
      "outputs": [
        {
          "name": "price",
          "type": "uint256"
        },
        {
          "name": "ownerAddr",
          "type": "address"
        }
      ],
      "payable": false,
      "stateMutability": "view",
      "type": "function"
    },
    {
      "constant": true,
      "inputs": [
        {
          "name": "",
          "type": "uint256"
        }
      ],
      "name": "diamonds",
      "outputs": [
        {
          "name": "price",
          "type": "uint256"
        },
        {
          "name": "ownerAddr",
          "type": "address"
        }
      ],
      "payable": false,
      "stateMutability": "view",
      "type": "function"
    },
    {
      "constant": false,
      "inputs": [],
      "name": "kill",
      "outputs": [],
      "payable": false,
      "stateMutability": "nonpayable",
      "type": "function"
    },
    {
      "constant": true,
      "inputs": [],
      "name": "getDiamondId",
      "outputs": [
        {
          "name": "diamondId",
          "type": "uint256"
        }
      ],
      "payable": false,
      "stateMutability": "view",
      "type": "function"
    },
    {
      "constant": false,
      "inputs": [
        {
          "name": "price",
          "type": "uint256"
        }
      ],
      "name": "createDiamond",
      "outputs": [
        {
          "name": "",
          "type": "uint256"
        },
        {
          "name": "",
          "type": "uint256"
        },
        {
          "name": "",
          "type": "address"
        }
      ],
      "payable": false,
      "stateMutability": "nonpayable",
      "type": "function"
    },
    {
      "constant": false,
      "inputs": [
        {
          "name": "diamondId",
          "type": "uint256"
        }
      ],
      "name": "buy",
      "outputs": [],
      "payable": true,
      "stateMutability": "payable",
      "type": "function"
    },
    {
      "constant": false,
      "inputs": [
        {
          "name": "diamondId",
          "type": "uint256"
        }
      ],
      "name": "getDiamond",
      "outputs": [
        {
          "name": "",
          "type": "uint256"
        },
        {
          "name": "",
          "type": "uint256"
        },
        {
          "name": "",
          "type": "address"
        }
      ],
      "payable": false,
      "stateMutability": "nonpayable",
      "type": "function"
    },
    {
      "constant": false,
      "inputs": [],
      "name": "diamondsTot",
      "outputs": [
        {
          "name": "",
          "type": "address"
        },
        {
          "name": "",
          "type": "uint256"
        }
      ],
      "payable": false,
      "stateMutability": "nonpayable",
      "type": "function"
    },
    {
      "inputs": [],
      "payable": false,
      "stateMutability": "nonpayable",
      "type": "constructor"
    },
    {
      "anonymous": false,
      "inputs": [
        {
          "indexed": false,
          "name": "",
          "type": "uint256"
        },
        {
          "indexed": false,
          "name": "",
          "type": "uint256"
        },
        {
          "indexed": false,
          "name": "",
          "type": "address"
        }
      ],
      "name": "DiamondLogger",
      "type": "event"
    }
  ],
  "bytecode": "0x6060604052341561000f57600080fd5b33600260006101000a81548173ffffffffffffffffffffffffffffffffffffffff021916908373ffffffffffffffffffffffffffffffffffffffff16021790555061084e8061005f6000396000f30060606040526004361061008e576000357c0100000000000000000000000000000000000000000000000000000000900463ffffffff1680631e570dd4146100935780633951e09b146100fd57806341c0e1b5146101675780638ae326101461017c578063b5a32636146101a5578063d96a094a14610216578063e3ed14db1461022e578063e61254241461029f575b600080fd5b341561009e57600080fd5b6100b460048080359060200190919050506102fb565b604051808381526020018273ffffffffffffffffffffffffffffffffffffffff1673ffffffffffffffffffffffffffffffffffffffff1681526020019250505060405180910390f35b341561010857600080fd5b61011e600480803590602001909190505061034e565b604051808381526020018273ffffffffffffffffffffffffffffffffffffffff1673ffffffffffffffffffffffffffffffffffffffff1681526020019250505060405180910390f35b341561017257600080fd5b61017a610392565b005b341561018757600080fd5b61018f610425565b6040518082815260200191505060405180910390f35b34156101b057600080fd5b6101c66004808035906020019091905050610431565b604051808481526020018381526020018273ffffffffffffffffffffffffffffffffffffffff1673ffffffffffffffffffffffffffffffffffffffff168152602001935050505060405180910390f35b61022c60048080359060200190919050506105bc565b005b341561023957600080fd5b61024f600480803590602001909190505061070c565b604051808481526020018381526020018273ffffffffffffffffffffffffffffffffffffffff1673ffffffffffffffffffffffffffffffffffffffff168152602001935050505060405180910390f35b34156102aa57600080fd5b6102b2610760565b604051808373ffffffffffffffffffffffffffffffffffffffff1673ffffffffffffffffffffffffffffffffffffffff1681526020018281526020019250505060405180910390f35b60008181548110151561030a57fe5b90600052602060002090600202016000915090508060000154908060010160009054906101000a900473ffffffffffffffffffffffffffffffffffffffff16905082565b60016020528060005260406000206000915090508060000154908060010160009054906101000a900473ffffffffffffffffffffffffffffffffffffffff16905082565b600260009054906101000a900473ffffffffffffffffffffffffffffffffffffffff1673ffffffffffffffffffffffffffffffffffffffff163373ffffffffffffffffffffffffffffffffffffffff16141561042357600260009054906101000a900473ffffffffffffffffffffffffffffffffffffffff1673ffffffffffffffffffffffffffffffffffffffff16ff5b565b60008080549050905090565b600080600061043e610772565b600060408051908101604052808781526020013373ffffffffffffffffffffffffffffffffffffffff1681525091506000805480600101828161048191906107a2565b916000526020600020906002020160008490919091506000820151816000015560208201518160010160006101000a81548173ffffffffffffffffffffffffffffffffffffffff021916908373ffffffffffffffffffffffffffffffffffffffff160217905550505050600160008054905003905081600160008381526020019081526020016000206000820151816000015560208201518160010160006101000a81548173ffffffffffffffffffffffffffffffffffffffff021916908373ffffffffffffffffffffffffffffffffffffffff1602179055509050508060016000838152602001908152602001600020600001546001600084815260200190815260200160002060010160009054906101000a900473ffffffffffffffffffffffffffffffffffffffff1694509450945050509193909250565b806000805490501180156105fa5750670de0b6b3a76400006000828154811015156105e357fe5b906000526020600020906002020160000154023410155b156107095760008181548110151561060e57fe5b906000526020600020906002020160010160009054906101000a900473ffffffffffffffffffffffffffffffffffffffff1673ffffffffffffffffffffffffffffffffffffffff166108fc670de0b6b3a764000060008481548110151561067157fe5b906000526020600020906002020160000154029081150290604051600060405180830381858888f1935050505015156106a957600080fd5b336000828154811015156106b957fe5b906000526020600020906002020160010160006101000a81548173ffffffffffffffffffffffffffffffffffffffff021916908373ffffffffffffffffffffffffffffffffffffffff1602179055505b50565b6000806000806001600086815260200190815260200160002090508481600001548260010160009054906101000a900473ffffffffffffffffffffffffffffffffffffffff16935093509350509193909250565b60008033600080549050915091509091565b604080519081016040528060008152602001600073ffffffffffffffffffffffffffffffffffffffff1681525090565b8154818355818115116107cf576002028160020283600052602060002091820191016107ce91906107d4565b5b505050565b61081f91905b8082111561081b576000808201600090556001820160006101000a81549073ffffffffffffffffffffffffffffffffffffffff0219169055506002016107da565b5090565b905600a165627a7a72305820652b184cd1141e3bd935a471c6c8eb7fbd4cc127832a6046e5a0eea1f31f57f70029",
  "source": "pragma solidity ^0.4.0;\n\ncontract Diamonds {\n    struct Diamond {\n        uint price; // in ether (should convert to Wei)\n        address ownerAddr;\n    }\n    \n    Diamond[] public allDiamonds; // array of Diamond structs\n    mapping(uint => Diamond) public diamonds; \n    address owner;\n    \n    event DiamondLogger(uint, uint, address);\n    \n    function Diamonds() public {\n        owner = msg.sender;\n    }\n\n    function getDiamondId() public constant returns (uint diamondId) {\n        return allDiamonds.length;\n    }\n    \n    function createDiamond(uint price) public returns (uint, uint, address) {\n        // uint diamondId = allDiamonds.length;\n        Diamond memory d = Diamond(price, msg.sender); \n        allDiamonds.push(d);\n        uint diamondId = allDiamonds.length-1; \n        diamonds[diamondId] = d; \n        return (diamondId, diamonds[diamondId].price, diamonds[diamondId].ownerAddr);\n    }\n\n     function getDiamond(uint diamondId) public returns(uint, uint, address) {\n        Diamond d = diamonds[diamondId];\n        \n        // break the struct's members out into a tuple\n        // in the same order that they appear in the struct\n        return (diamondId, d.price, d.ownerAddr);\n    }\n\n    \n    function buy(uint diamondId) payable public {\n        //find diamond (diamondId should be index of diamond in allDiamonds)\n        if (allDiamonds.length > diamondId && \n            msg.value >= allDiamonds[diamondId].price * 1e18) {\n            allDiamonds[diamondId].ownerAddr.transfer(allDiamonds[diamondId].price * 1e18);\n            allDiamonds[diamondId].ownerAddr = msg.sender;\n        }\n    }\n\n    function diamondsTot() public returns (address, uint) {\n        return (msg.sender, allDiamonds.length); \n    }\n    \n    function kill() public {\n        if (msg.sender == owner) \n          selfdestruct(owner);\n    }\n}",
  "sourcePath": "/Users/KevinLee/Documents/blockchain/noncense/contracts/Diamonds.sol",
  "compiler": {
    "name": "solc",
    "version": "0.4.18+commit.9cf6e910.Emscripten.clang"
  },
  "schemaVersion": "1.0.1",
  "updatedAt": "2017-12-14T03:01:49.902Z"
}