{
  "contractName": "Diamonds",
  "abi": [
    {
      "constant": true,
      "inputs": [
        {
          "name": "id",
          "type": "uint256"
        }
      ],
      "name": "getDiamondDetails",
      "outputs": [
        {
          "name": "",
          "type": "uint256"
        },
        {
          "name": "",
          "type": "uint8"
        },
        {
          "name": "",
          "type": "uint16"
        },
        {
          "name": "",
          "type": "uint8"
        },
        {
          "name": "",
          "type": "uint8"
        },
        {
          "name": "",
          "type": "uint8"
        }
      ],
      "payable": false,
      "stateMutability": "view",
      "type": "function"
    },
    {
      "constant": true,
      "inputs": [],
      "name": "getLastDiamond",
      "outputs": [
        {
          "name": "",
          "type": "uint256"
        },
        {
          "name": "",
          "type": "string"
        },
        {
          "name": "",
          "type": "uint256"
        },
        {
          "name": "",
          "type": "address"
        },
        {
          "name": "",
          "type": "string"
        }
      ],
      "payable": false,
      "stateMutability": "view",
      "type": "function"
    },
    {
      "constant": false,
      "inputs": [],
      "name": "kill",
      "outputs": [],
      "payable": false,
      "stateMutability": "nonpayable",
      "type": "function"
    },
    {
      "constant": true,
      "inputs": [],
      "name": "getLastDiamondDetails",
      "outputs": [
        {
          "name": "",
          "type": "uint256"
        },
        {
          "name": "",
          "type": "uint8"
        },
        {
          "name": "",
          "type": "uint16"
        },
        {
          "name": "",
          "type": "uint8"
        },
        {
          "name": "",
          "type": "uint8"
        },
        {
          "name": "",
          "type": "uint8"
        }
      ],
      "payable": false,
      "stateMutability": "view",
      "type": "function"
    },
    {
      "constant": true,
      "inputs": [],
      "name": "getAllDiamonds",
      "outputs": [
        {
          "name": "",
          "type": "string"
        },
        {
          "name": "",
          "type": "uint256[]"
        },
        {
          "name": "",
          "type": "address[]"
        },
        {
          "name": "",
          "type": "string"
        }
      ],
      "payable": false,
      "stateMutability": "view",
      "type": "function"
    },
    {
      "constant": false,
      "inputs": [
        {
          "name": "id",
          "type": "uint256"
        }
      ],
      "name": "buy",
      "outputs": [],
      "payable": true,
      "stateMutability": "payable",
      "type": "function"
    },
    {
      "constant": true,
      "inputs": [
        {
          "name": "id",
          "type": "uint256"
        }
      ],
      "name": "getDiamond",
      "outputs": [
        {
          "name": "",
          "type": "uint256"
        },
        {
          "name": "",
          "type": "string"
        },
        {
          "name": "",
          "type": "uint256"
        },
        {
          "name": "",
          "type": "address"
        },
        {
          "name": "",
          "type": "string"
        }
      ],
      "payable": false,
      "stateMutability": "view",
      "type": "function"
    },
    {
      "constant": false,
      "inputs": [
        {
          "name": "name",
          "type": "string"
        },
        {
          "name": "price",
          "type": "uint256"
        },
        {
          "name": "url",
          "type": "string"
        },
        {
          "name": "shape",
          "type": "uint8"
        },
        {
          "name": "carat",
          "type": "uint16"
        },
        {
          "name": "grade",
          "type": "uint8"
        },
        {
          "name": "cut",
          "type": "uint8"
        },
        {
          "name": "color",
          "type": "uint8"
        }
      ],
      "name": "createDiamond",
      "outputs": [],
      "payable": false,
      "stateMutability": "nonpayable",
      "type": "function"
    },
    {
      "inputs": [],
      "payable": false,
      "stateMutability": "nonpayable",
      "type": "constructor"
    }
  ],
  "bytecode": "0x6060604052341561000f57600080fd5b33600b60006101000a81548173ffffffffffffffffffffffffffffffffffffffff021916908373ffffffffffffffffffffffffffffffffffffffff160217905550611a268061005f6000396000f30060606040526004361061008e576000357c0100000000000000000000000000000000000000000000000000000000900463ffffffff1680630e065ccd14610093578063287bf6d51461010d57806341c0e1b51461024857806362447dbe1461025d578063a9856cf9146102c9578063d96a094a14610453578063e3ed14db1461046b578063ed039502146105b4575b600080fd5b341561009e57600080fd5b6100b4600480803590602001909190505061069a565b604051808781526020018660ff1660ff1681526020018561ffff1661ffff1681526020018460ff1660ff1681526020018360ff1660ff1681526020018260ff1660ff168152602001965050505050505060405180910390f35b341561011857600080fd5b6101206107a8565b60405180868152602001806020018581526020018473ffffffffffffffffffffffffffffffffffffffff1673ffffffffffffffffffffffffffffffffffffffff16815260200180602001838103835287818151815260200191508051906020019080838360005b838110156101a2578082015181840152602081019050610187565b50505050905090810190601f1680156101cf5780820380516001836020036101000a031916815260200191505b50838103825284818151815260200191508051906020019080838360005b838110156102085780820151818401526020810190506101ed565b50505050905090810190601f1680156102355780820380516001836020036101000a031916815260200191505b5097505050505050505060405180910390f35b341561025357600080fd5b61025b61099f565b005b341561026857600080fd5b610270610a36565b604051808781526020018660ff1660ff1681526020018561ffff1661ffff1681526020018460ff1660ff1681526020018360ff1660ff1681526020018260ff1660ff168152602001965050505050505060405180910390f35b34156102d457600080fd5b6102dc610b51565b6040518080602001806020018060200180602001858103855289818151815260200191508051906020019080838360005b8381101561032857808201518184015260208101905061030d565b50505050905090810190601f1680156103555780820380516001836020036101000a031916815260200191505b50858103845288818151815260200191508051906020019060200280838360005b83811015610391578082015181840152602081019050610376565b50505050905001858103835287818151815260200191508051906020019060200280838360005b838110156103d35780820151818401526020810190506103b8565b50505050905001858103825286818151815260200191508051906020019080838360005b838110156104125780820151818401526020810190506103f7565b50505050905090810190601f16801561043f5780820380516001836020036101000a031916815260200191505b509850505050505050505060405180910390f35b6104696004808035906020019091905050610d99565b005b341561047657600080fd5b61048c6004808035906020019091905050610ed6565b60405180868152602001806020018581526020018473ffffffffffffffffffffffffffffffffffffffff1673ffffffffffffffffffffffffffffffffffffffff16815260200180602001838103835287818151815260200191508051906020019080838360005b8381101561050e5780820151818401526020810190506104f3565b50505050905090810190601f16801561053b5780820380516001836020036101000a031916815260200191505b50838103825284818151815260200191508051906020019080838360005b83811015610574578082015181840152602081019050610559565b50505050905090810190601f1680156105a15780820380516001836020036101000a031916815260200191505b5097505050505050505060405180910390f35b34156105bf57600080fd5b610698600480803590602001908201803590602001908080601f0160208091040260200160405190810160405280939291908181526020018383808284378201915050505050509190803590602001909190803590602001908201803590602001908080601f0160208091040260200160405190810160405280939291908181526020018383808284378201915050505050509190803560ff1690602001909190803561ffff1690602001909190803560ff1690602001909190803560ff1690602001909190803560ff169060200190919050506110d4565b005b600080600080600080866006888154811015156106b357fe5b90600052602060002090602091828204019190069054906101000a900460ff166007898154811015156106e257fe5b90600052602060002090601091828204019190066002029054906101000a900461ffff1660088a81548110151561071557fe5b90600052602060002090602091828204019190069054906101000a900460ff1660098b81548110151561074457fe5b90600052602060002090602091828204019190069054906101000a900460ff16600a8c81548110151561077357fe5b90600052602060002090602091828204019190069054906101000a900460ff1695509550955095509550955091939550919395565b60006107b2611799565b6000806107bd611799565b60006001600280549050039050806000828154811015156107da57fe5b90600052602060002090016002838154811015156107f457fe5b90600052602060002090015460058481548110151561080f57fe5b906000526020600020900160009054906101000a900473ffffffffffffffffffffffffffffffffffffffff1660038581548110151561084a57fe5b9060005260206000209001838054600181600116156101000203166002900480601f0160208091040260200160405190810160405280929190818152602001828054600181600116156101000203166002900480156108ea5780601f106108bf576101008083540402835291602001916108ea565b820191906000526020600020905b8154815290600101906020018083116108cd57829003601f168201915b50505050509350808054600181600116156101000203166002900480601f0160208091040260200160405190810160405280929190818152602001828054600181600116156101000203166002900480156109865780601f1061095b57610100808354040283529160200191610986565b820191906000526020600020905b81548152906001019060200180831161096957829003601f168201915b5050505050905095509550955095509550509091929394565b600b60009054906101000a900473ffffffffffffffffffffffffffffffffffffffff1673ffffffffffffffffffffffffffffffffffffffff163373ffffffffffffffffffffffffffffffffffffffff161415156109fb57600080fd5b600b60009054906101000a900473ffffffffffffffffffffffffffffffffffffffff1673ffffffffffffffffffffffffffffffffffffffff16ff5b6000806000806000806000600160028054905003905080600682815481101515610a5c57fe5b90600052602060002090602091828204019190069054906101000a900460ff16600783815481101515610a8b57fe5b90600052602060002090601091828204019190066002029054906101000a900461ffff16600884815481101515610abe57fe5b90600052602060002090602091828204019190069054906101000a900460ff16600985815481101515610aed57fe5b90600052602060002090602091828204019190069054906101000a900460ff16600a86815481101515610b1c57fe5b90600052602060002090602091828204019190069054906101000a900460ff1696509650965096509650965050909192939495565b610b59611799565b610b616117ad565b610b696117c1565b610b71611799565b6001600260056004838054600181600116156101000203166002900480601f016020809104026020016040519081016040528092919081815260200182805460018160011615610100020316600290048015610c0e5780601f10610be357610100808354040283529160200191610c0e565b820191906000526020600020905b815481529060010190602001808311610bf157829003601f168201915b5050505050935082805480602002602001604051908101604052809291908181526020018280548015610c6057602002820191906000526020600020905b815481526020019060010190808311610c4c575b5050505050925081805480602002602001604051908101604052809291908181526020018280548015610ce857602002820191906000526020600020905b8160009054906101000a900473ffffffffffffffffffffffffffffffffffffffff1673ffffffffffffffffffffffffffffffffffffffff1681526020019060010190808311610c9e575b50505050509150808054600181600116156101000203166002900480601f016020809104026020016040519081016040528092919081815260200182805460018160011615610100020316600290048015610d845780601f10610d5957610100808354040283529160200191610d84565b820191906000526020600020905b815481529060010190602001808311610d6757829003601f168201915b50505050509050935093509350935090919293565b80600280549050118015610dd15750670de0b6b3a7640000600282815481101515610dc057fe5b906000526020600020900154023410155b1515610ddc57600080fd5b600581815481101515610deb57fe5b906000526020600020900160009054906101000a900473ffffffffffffffffffffffffffffffffffffffff1673ffffffffffffffffffffffffffffffffffffffff166108fc670de0b6b3a7640000600284815481101515610e4857fe5b906000526020600020900154029081150290604051600060405180830381858888f193505050501515610e7a57600080fd5b33600582815481101515610e8a57fe5b906000526020600020900160006101000a81548173ffffffffffffffffffffffffffffffffffffffff021916908373ffffffffffffffffffffffffffffffffffffffff16021790555050565b6000610ee0611799565b600080610eeb611799565b85600280549050111515610efe57600080fd5b85600087815481101515610f0e57fe5b9060005260206000209001600288815481101515610f2857fe5b906000526020600020900154600589815481101515610f4357fe5b906000526020600020900160009054906101000a900473ffffffffffffffffffffffffffffffffffffffff1660038a815481101515610f7e57fe5b9060005260206000209001838054600181600116156101000203166002900480601f01602080910402602001604051908101604052809291908181526020018280546001816001161561010002031660029004801561101e5780601f10610ff35761010080835404028352916020019161101e565b820191906000526020600020905b81548152906001019060200180831161100157829003601f168201915b50505050509350808054600181600116156101000203166002900480601f0160208091040260200160405190810160405280929190818152602001828054600181600116156101000203166002900480156110ba5780601f1061108f576101008083540402835291602001916110ba565b820191906000526020600020905b81548152906001019060200180831161109d57829003601f168201915b505050505090509450945094509450945091939590929450565b600080548060010182816110e891906117d5565b916000526020600020900160008a9091909150908051906020019061110e929190611801565b50506111ea60018054600181600116156101000203166002900480601f0160208091040260200160405190810160405280929190818152602001828054600181600116156101000203166002900480156111a95780601f1061117e576101008083540402835291602001916111a9565b820191906000526020600020905b81548152906001019060200180831161118c57829003601f168201915b5050505050896040805190810160405280600181526020017f7c0000000000000000000000000000000000000000000000000000000000000081525061151b565b600190805190602001906111ff929190611801565b50600280548060010182816112149190611881565b9160005260206000209001600089909190915055506005805480600101828161123d91906118ad565b9160005260206000209001600033909190916101000a81548173ffffffffffffffffffffffffffffffffffffffff021916908373ffffffffffffffffffffffffffffffffffffffff16021790555050600380548060010182816112a091906117d5565b9160005260206000209001600088909190915090805190602001906112c6929190611801565b50506113a260048054600181600116156101000203166002900480601f0160208091040260200160405190810160405280929190818152602001828054600181600116156101000203166002900480156113615780601f1061133657610100808354040283529160200191611361565b820191906000526020600020905b81548152906001019060200180831161134457829003601f168201915b5050505050896040805190810160405280600181526020017f7c0000000000000000000000000000000000000000000000000000000000000081525061151b565b600490805190602001906113b7929190611801565b50600680548060010182816113cc91906118d9565b916000526020600020906020918282040191900687909190916101000a81548160ff021916908360ff16021790555050600780548060010182816114109190611913565b916000526020600020906010918282040191900660020286909190916101000a81548161ffff021916908361ffff160217905550506008805480600101828161145991906118d9565b916000526020600020906020918282040191900685909190916101000a81548160ff021916908360ff160217905550506009805480600101828161149d91906118d9565b916000526020600020906020918282040191900684909190916101000a81548160ff021916908360ff16021790555050600a80548060010182816114e191906118d9565b916000526020600020906020918282040191900683909190916101000a81548160ff021916908360ff160217905550505050505050505050565b611523611799565b61152b61194d565b61153361194d565b61153b611799565b61154361194d565b60008089955088945060018551875101016040518059106115615750595b9080825280601f01601f19166020018201604052509350839250600091505b855182101561163357858281518110151561159757fe5b9060200101517f010000000000000000000000000000000000000000000000000000000000000090047f01000000000000000000000000000000000000000000000000000000000000000283828060010193508151811015156115f657fe5b9060200101907effffffffffffffffffffffffffffffffffffffffffffffffffffffffffffff1916908160001a9053508180600101925050611580565b87600081518110151561164257fe5b9060200101517f010000000000000000000000000000000000000000000000000000000000000090047f01000000000000000000000000000000000000000000000000000000000000000283828060010193508151811015156116a157fe5b9060200101907effffffffffffffffffffffffffffffffffffffffffffffffffffffffffffff1916908160001a905350600091505b84518210156117895784828151811015156116ed57fe5b9060200101517f010000000000000000000000000000000000000000000000000000000000000090047f010000000000000000000000000000000000000000000000000000000000000002838280600101935081518110151561174c57fe5b9060200101907effffffffffffffffffffffffffffffffffffffffffffffffffffffffffffff1916908160001a90535081806001019250506116d6565b8296505050505050509392505050565b602060405190810160405280600081525090565b602060405190810160405280600081525090565b602060405190810160405280600081525090565b8154818355818115116117fc578183600052602060002091820191016117fb9190611961565b5b505050565b828054600181600116156101000203166002900490600052602060002090601f016020900481019282601f1061184257805160ff1916838001178555611870565b82800160010185558215611870579182015b8281111561186f578251825591602001919060010190611854565b5b50905061187d919061198d565b5090565b8154818355818115116118a8578183600052602060002091820191016118a7919061198d565b5b505050565b8154818355818115116118d4578183600052602060002091820191016118d3919061198d565b5b505050565b81548183558181151161190e57601f016020900481601f0160209004836000526020600020918201910161190d919061198d565b5b505050565b81548183558181151161194857600f016010900481600f01601090048360005260206000209182019101611947919061198d565b5b505050565b602060405190810160405280600081525090565b61198a91905b80821115611986576000818161197d91906119b2565b50600101611967565b5090565b90565b6119af91905b808211156119ab576000816000905550600101611993565b5090565b90565b50805460018160011615610100020316600290046000825580601f106119d857506119f7565b601f0160209004906000526020600020908101906119f6919061198d565b5b505600a165627a7a72305820dfd6f68265d4e8ce93751339ad14e7775672291945bde40af4f8a97612143eef0029",
  "source": "pragma solidity ^0.4.18;\n\ncontract Diamonds {\n  \n    // separate arrays for each diamond field. Index is the id\n    string[] diamondNames;\n    string diamondNamesString;\n    uint[] diamondPrices;\n    string[] diamondUrls;\n    string diamondUrlsString;\n    address[] diamondOwners;\n    uint8[] diamondShapes;\n    uint16[] diamondCarats;\n    uint8[] diamondGrades;\n    uint8[] diamondCuts;\n    uint8[] diamondColors;\n\n    address private owner;\n    \n    function Diamonds() public {\n        // constructor function\n        owner = msg.sender; // contract owner\n    }\n    \n    function createDiamond(string name, uint price, string url, uint8 shape, \n        uint16 carat, uint8 grade, uint8 cut, uint8 color) public \n    {\n        diamondNames.push(name);\n        diamondNamesString = concat(diamondNamesString, name, \"|\");\n        diamondPrices.push(price);\n        diamondOwners.push(msg.sender);\n        diamondUrls.push(url);\n        diamondUrlsString = concat(diamondUrlsString, name, \"|\");\n        diamondShapes.push(shape);\n        diamondCarats.push(carat);\n        diamondGrades.push(grade);\n        diamondCuts.push(cut);\n        diamondColors.push(color);\n    }\n    \n    function buy(uint id) payable public {\n        // id is index of diamond in the arrays\n        require(diamondPrices.length > id && \n            msg.value >= diamondPrices[id] * 1e18);\n\n        diamondOwners[id].transfer(diamondPrices[id] * 1e18);\n        diamondOwners[id] = msg.sender; // change owner\n    }\n    \n    function getDiamond(uint id) view public \n        returns (uint, string, uint, address, string) \n    {\n        require(diamondPrices.length > id);\n        return (id, diamondNames[id], diamondPrices[id], diamondOwners[id],\n            diamondUrls[id]\n        );\n    }\n\n    function getDiamondDetails(uint id) view public \n        returns (uint, uint8, uint16, uint8, uint8, uint8)\n    {\n        return (id, diamondShapes[id], diamondCarats[id], diamondGrades[id],\n            diamondCuts[id], diamondColors[id]\n        );\n    }\n    \n    function getLastDiamond() view public \n        returns (uint, string, uint, address, string) \n    {\n        uint id = diamondPrices.length - 1;\n        return (id, diamondNames[id], diamondPrices[id], diamondOwners[id],\n            diamondUrls[id]\n        );\n    }\n    \n    function getLastDiamondDetails() view public \n        returns (uint, uint8, uint16, uint8, uint8, uint8)\n    {\n        uint id = diamondPrices.length - 1;\n        return (id, diamondShapes[id], diamondCarats[id], diamondGrades[id],\n            diamondCuts[id], diamondColors[id]);\n    }\n\n    function getAllDiamonds() view public \n        returns (string, uint[], address[], string) \n    {\n        return (diamondNamesString, diamondPrices, diamondOwners,\n            diamondUrlsString\n        );\n    }\n    \n    function kill() public {\n        // destroy contract and send all remaining funds to contract owner's address\n        require (msg.sender == owner);\n        selfdestruct(owner);\n    }\n    \n    function concat(string _base, string _value, string _separator) \n        pure \n        internal \n        returns (string) \n        {\n        bytes memory _baseBytes = bytes(_base);\n        bytes memory _valueBytes = bytes(_value);\n        \n        string memory _tmpValue = new string(_baseBytes.length + _valueBytes.length + 1);\n        bytes memory _newValue = bytes(_tmpValue);\n        \n        uint i;\n        uint j;\n        \n        for (i=0; i < _baseBytes.length; i++) {\n            _newValue[j++] = _baseBytes[i];\n        }\n        \n        _newValue[j++] = bytes(_separator)[0];\n        \n        for (i=0; i < _valueBytes.length; i++) {\n            _newValue[j++] = _valueBytes[i];\n        }\n        \n        return string(_newValue);\n    }\n}",
  "sourcePath": "/Users/cylinda/Documents/app_academy/noncense/contracts/Diamonds.sol",
  "compiler": {
    "name": "solc",
    "version": "0.4.18+commit.9cf6e910.Emscripten.clang"
  },
  "schemaVersion": "1.0.1",
  "updatedAt": "2017-12-15T22:53:27.717Z"
}