{
  "contractName": "Diamonds",
  "abi": [
    {
      "constant": true,
      "inputs": [
        {
          "name": "",
          "type": "uint256"
        }
      ],
      "name": "allDiamonds",
      "outputs": [
        {
          "name": "id",
          "type": "uint256"
        },
        {
          "name": "price",
          "type": "uint256"
        },
        {
          "name": "ownerAddr",
          "type": "address"
        }
      ],
      "payable": false,
      "stateMutability": "view",
      "type": "function"
    },
    {
      "constant": false,
      "inputs": [],
      "name": "kill",
      "outputs": [],
      "payable": false,
      "stateMutability": "nonpayable",
      "type": "function"
    },
    {
      "constant": true,
      "inputs": [
        {
          "name": "price",
          "type": "uint256"
        }
      ],
      "name": "getDiamondId",
      "outputs": [
        {
          "name": "diamondId",
          "type": "uint256"
        }
      ],
      "payable": false,
      "stateMutability": "view",
      "type": "function"
    },
    {
      "constant": false,
      "inputs": [
        {
          "name": "price",
          "type": "uint256"
        }
      ],
      "name": "createDiamond",
      "outputs": [
        {
          "name": "diamondId",
          "type": "uint256"
        }
      ],
      "payable": false,
      "stateMutability": "nonpayable",
      "type": "function"
    },
    {
      "inputs": [
        {
          "name": "diamondId",
          "type": "uint256"
        }
      ],
      "payable": true,
      "stateMutability": "payable",
      "type": "function",
      "constant": false,
      "name": "buy",
      "outputs": [
        {
          "name": "",
          "type": "bytes32"
        }
      ]
    },
    {
      "anonymous": false,
      "inputs": [
        {
          "indexed": false,
          "name": "",
          "type": "uint256"
        },
        {
          "indexed": false,
          "name": "",
          "type": "uint256"
        },
        {
          "indexed": false,
          "name": "",
          "type": "address"
        }
      ],
      "name": "DiamondLogger",
      "type": "constructor",
      "payable": false,
      "stateMutability": "nonpayable"
    },
    {
      "anonymous": false,
      "inputs": [
        {
          "indexed": false,
          "name": "",
          "type": "uint256"
        },
        {
          "indexed": false,
          "name": "",
          "type": "uint256"
        },
        {
          "indexed": false,
          "name": "",
          "type": "address"
        }
      ],
      "name": "DiamondLogger",
      "type": "event"
    }
  ],
  "bytecode": "0x6060604052341561000f57600080fd5b33600160006101000a81548173ffffffffffffffffffffffffffffffffffffffff021916908373ffffffffffffffffffffffffffffffffffffffff16021790555061061e8061005f6000396000f30060606040526004361061006d576000357c0100000000000000000000000000000000000000000000000000000000900463ffffffff1680631e570dd41461007257806341c0e1b5146100e35780638ae32610146100f8578063b5a3263614610121578063d96a094a14610158575b600080fd5b341561007d57600080fd5b6100936004808035906020019091905050610170565b604051808481526020018381526020018273ffffffffffffffffffffffffffffffffffffffff1673ffffffffffffffffffffffffffffffffffffffff168152602001935050505060405180910390f35b34156100ee57600080fd5b6100f66101c9565b005b341561010357600080fd5b61010b61025c565b6040518082815260200191505060405180910390f35b341561012c57600080fd5b6101426004808035906020019091905050610268565b6040518082815260200191505060405180910390f35b61016e600480803590602001909190505061041a565b005b60008181548110151561017f57fe5b90600052602060002090600302016000915090508060000154908060010154908060020160009054906101000a900473ffffffffffffffffffffffffffffffffffffffff16905083565b600160009054906101000a900473ffffffffffffffffffffffffffffffffffffffff1673ffffffffffffffffffffffffffffffffffffffff163373ffffffffffffffffffffffffffffffffffffffff16141561025a57600160009054906101000a900473ffffffffffffffffffffffffffffffffffffffff1673ffffffffffffffffffffffffffffffffffffffff16ff5b565b60008080549050905090565b600080805480600101828161027d919061056a565b916000526020600020906003020160006060604051908101604052808581526020018681526020013373ffffffffffffffffffffffffffffffffffffffff168152509091909150600082015181600001556020820151816001015560408201518160020160006101000a81548173ffffffffffffffffffffffffffffffffffffffff021916908373ffffffffffffffffffffffffffffffffffffffff1602179055505050507f68fbd1057e8027d898c27fce86b80a981acecc1fedceaab794402d6d0a02111a60008281548110151561035257fe5b90600052602060002090600302016000015460008381548110151561037357fe5b90600052602060002090600302016001015460008481548110151561039457fe5b906000526020600020906003020160020160009054906101000a900473ffffffffffffffffffffffffffffffffffffffff16604051808481526020018381526020018273ffffffffffffffffffffffffffffffffffffffff1673ffffffffffffffffffffffffffffffffffffffff168152602001935050505060405180910390a1919050565b806000805490501180156104585750670de0b6b3a764000060008281548110151561044157fe5b906000526020600020906003020160010154023410155b156105675760008181548110151561046c57fe5b906000526020600020906003020160020160009054906101000a900473ffffffffffffffffffffffffffffffffffffffff1673ffffffffffffffffffffffffffffffffffffffff166108fc670de0b6b3a76400006000848154811015156104cf57fe5b906000526020600020906003020160010154029081150290604051600060405180830381858888f19350505050151561050757600080fd5b3360008281548110151561051757fe5b906000526020600020906003020160020160006101000a81548173ffffffffffffffffffffffffffffffffffffffff021916908373ffffffffffffffffffffffffffffffffffffffff1602179055505b50565b81548183558181151161059757600302816003028360005260206000209182019101610596919061059c565b5b505050565b6105ef91905b808211156105eb5760008082016000905560018201600090556002820160006101000a81549073ffffffffffffffffffffffffffffffffffffffff0219169055506003016105a2565b5090565b905600a165627a7a72305820c293516bcba5c2037386dab24e6cbc6408c3e7627c45018391808f7551e96aac0029",
  "source": "pragma solidity ^0.4.0;\n\ncontract Diamonds {\n    struct Diamond {\n        uint id;\n        uint price; // in ether (should convert to Wei)\n        address ownerAddr;\n    }\n    \n    Diamond[] public allDiamonds; // array of Diamond structs\n    address owner;\n    \n    event DiamondLogger(uint, uint, address);\n    \n    function Diamonds() public {\n        owner = msg.sender;\n    }\n\n    function getDiamondId() public constant returns (uint diamondId) {\n        return allDiamonds.length;\n    }\n    \n    function createDiamond(uint price) public returns (uint diamondId) {\n        // diamondId = allDiamonds.length;\n        allDiamonds.push(Diamond(diamondId, price, msg.sender));\n        DiamondLogger(allDiamonds[diamondId].id, allDiamonds[diamondId].price, allDiamonds[diamondId].ownerAddr);\n        // return diamondId;\n    }\n    \n    function buy(uint diamondId) payable public {\n        //find diamond (diamondId should be index of diamond in allDiamonds)\n        if (allDiamonds.length > diamondId && \n            msg.value >= allDiamonds[diamondId].price * 1e18) {\n            allDiamonds[diamondId].ownerAddr.transfer(allDiamonds[diamondId].price * 1e18);\n            allDiamonds[diamondId].ownerAddr = msg.sender;\n        }\n    }\n    \n    function kill() public {\n        if (msg.sender == owner) \n          selfdestruct(owner);\n    }\n}",
  "sourcePath": "/Users/dramaze/Desktop/appacademy/noncense/contracts/Diamonds.sol",
  "compiler": {
    "name": "solc",
    "version": "0.4.18+commit.9cf6e910.Emscripten.clang"
  },
  "schemaVersion": "1.0.1",
  "updatedAt": "2017-12-13T03:00:57.173Z"
}