{
  "contractName": "Diamonds",
  "abi": [
    {
      "constant": true,
      "inputs": [],
      "name": "getLastDiamond",
      "outputs": [
        {
          "name": "",
          "type": "uint256"
        },
        {
          "name": "",
          "type": "string"
        },
        {
          "name": "",
          "type": "uint256"
        },
        {
          "name": "",
          "type": "address"
        }
      ],
      "payable": false,
      "stateMutability": "view",
      "type": "function"
    },
    {
      "constant": false,
      "inputs": [],
      "name": "kill",
      "outputs": [],
      "payable": false,
      "stateMutability": "nonpayable",
      "type": "function"
    },
    {
      "constant": true,
      "inputs": [],
      "name": "getAllDiamonds",
      "outputs": [
        {
          "name": "",
          "type": "string"
        },
        {
          "name": "",
          "type": "uint256[]"
        },
        {
          "name": "",
          "type": "address[]"
        }
      ],
      "payable": false,
      "stateMutability": "view",
      "type": "function"
    },
    {
      "constant": false,
      "inputs": [
        {
          "name": "name",
          "type": "string"
        },
        {
          "name": "price",
          "type": "uint256"
        }
      ],
      "name": "createDiamond",
      "outputs": [],
      "payable": false,
      "stateMutability": "nonpayable",
      "type": "function"
    },
    {
      "constant": false,
      "inputs": [
        {
          "name": "id",
          "type": "uint256"
        }
      ],
      "name": "buy",
      "outputs": [],
      "payable": true,
      "stateMutability": "payable",
      "type": "function"
    },
    {
      "constant": true,
      "inputs": [
        {
          "name": "id",
          "type": "uint256"
        }
      ],
      "name": "getDiamond",
      "outputs": [
        {
          "name": "",
          "type": "uint256"
        },
        {
          "name": "",
          "type": "string"
        },
        {
          "name": "",
          "type": "uint256"
        },
        {
          "name": "",
          "type": "address"
        }
      ],
      "payable": false,
      "stateMutability": "view",
      "type": "function"
    },
    {
      "inputs": [],
      "payable": false,
      "stateMutability": "nonpayable",
      "type": "constructor"
    }
  ],
  "bytecode": "0x6060604052341561000f57600080fd5b33600460006101000a81548173ffffffffffffffffffffffffffffffffffffffff021916908373ffffffffffffffffffffffffffffffffffffffff1602179055506110128061005f6000396000f300606060405260043610610078576000357c0100000000000000000000000000000000000000000000000000000000900463ffffffff168063287bf6d51461007d57806341c0e1b51461014c578063a9856cf914610161578063cf83078d1461027f578063d96a094a146102e5578063e3ed14db146102fd575b600080fd5b341561008857600080fd5b6100906103da565b60405180858152602001806020018481526020018373ffffffffffffffffffffffffffffffffffffffff1673ffffffffffffffffffffffffffffffffffffffff168152602001828103825285818151815260200191508051906020019080838360005b8381101561010e5780820151818401526020810190506100f3565b50505050905090810190601f16801561013b5780820380516001836020036101000a031916815260200191505b509550505050505060405180910390f35b341561015757600080fd5b61015f610510565b005b341561016c57600080fd5b6101746105a7565b60405180806020018060200180602001848103845287818151815260200191508051906020019080838360005b838110156101bc5780820151818401526020810190506101a1565b50505050905090810190601f1680156101e95780820380516001836020036101000a031916815260200191505b50848103835286818151815260200191508051906020019060200280838360005b8381101561022557808201518184015260208101905061020a565b50505050905001848103825285818151815260200191508051906020019060200280838360005b8381101561026757808201518184015260208101905061024c565b50505050905001965050505050505060405180910390f35b341561028a57600080fd5b6102e3600480803590602001908201803590602001908080601f01602080910402602001604051908101604052809392919081815260200183838082843782019150505050505091908035906020019091905050610746565b005b6102fb6004808035906020019091905050610902565b005b341561030857600080fd5b61031e6004808035906020019091905050610a3f565b60405180858152602001806020018481526020018373ffffffffffffffffffffffffffffffffffffffff1673ffffffffffffffffffffffffffffffffffffffff168152602001828103825285818151815260200191508051906020019080838360005b8381101561039c578082015181840152602081019050610381565b50505050905090810190601f1680156103c95780820380516001836020036101000a031916815260200191505b509550505050505060405180910390f35b60006103e4610df9565b600080600060016000805490500390508060028281548110151561040457fe5b906000526020600020900160008381548110151561041e57fe5b90600052602060002090015460018481548110151561043957fe5b906000526020600020900160009054906101000a900473ffffffffffffffffffffffffffffffffffffffff16828054600181600116156101000203166002900480601f0160208091040260200160405190810160405280929190818152602001828054600181600116156101000203166002900480156104fa5780601f106104cf576101008083540402835291602001916104fa565b820191906000526020600020905b8154815290600101906020018083116104dd57829003601f168201915b5050505050925094509450945094505090919293565b600460009054906101000a900473ffffffffffffffffffffffffffffffffffffffff1673ffffffffffffffffffffffffffffffffffffffff163373ffffffffffffffffffffffffffffffffffffffff1614151561056c57600080fd5b600460009054906101000a900473ffffffffffffffffffffffffffffffffffffffff1673ffffffffffffffffffffffffffffffffffffffff16ff5b6105af610df9565b6105b7610e0d565b6105bf610e21565b600360006001828054600181600116156101000203166002900480601f01602080910402602001604051908101604052809291908181526020018280546001816001161561010002031660029004801561065a5780601f1061062f5761010080835404028352916020019161065a565b820191906000526020600020905b81548152906001019060200180831161063d57829003601f168201915b50505050509250818054806020026020016040519081016040528092919081815260200182805480156106ac57602002820191906000526020600020905b815481526020019060010190808311610698575b505050505091508080548060200260200160405190810160405280929190818152602001828054801561073457602002820191906000526020600020905b8160009054906101000a900473ffffffffffffffffffffffffffffffffffffffff1673ffffffffffffffffffffffffffffffffffffffff16815260200190600101908083116106ea575b50505050509050925092509250909192565b6002805480600101828161075a9190610e35565b916000526020600020900160008490919091509080519060200190610780929190610e61565b505061085c60038054600181600116156101000203166002900480601f01602080910402602001604051908101604052809291908181526020018280546001816001161561010002031660029004801561081b5780601f106107f05761010080835404028352916020019161081b565b820191906000526020600020905b8154815290600101906020018083116107fe57829003601f168201915b5050505050836040805190810160405280600181526020017f7c00000000000000000000000000000000000000000000000000000000000000815250610b7b565b60039080519060200190610871929190610e61565b50600080548060010182816108869190610ee1565b916000526020600020900160008390919091505550600180548060010182816108af9190610f0d565b9160005260206000209001600033909190916101000a81548173ffffffffffffffffffffffffffffffffffffffff021916908373ffffffffffffffffffffffffffffffffffffffff160217905550505050565b8060008054905011801561093a5750670de0b6b3a764000060008281548110151561092957fe5b906000526020600020900154023410155b151561094557600080fd5b60018181548110151561095457fe5b906000526020600020900160009054906101000a900473ffffffffffffffffffffffffffffffffffffffff1673ffffffffffffffffffffffffffffffffffffffff166108fc670de0b6b3a76400006000848154811015156109b157fe5b906000526020600020900154029081150290604051600060405180830381858888f1935050505015156109e357600080fd5b336001828154811015156109f357fe5b906000526020600020900160006101000a81548173ffffffffffffffffffffffffffffffffffffffff021916908373ffffffffffffffffffffffffffffffffffffffff16021790555050565b6000610a49610df9565b60008084600080549050111515610a5f57600080fd5b84600286815481101515610a6f57fe5b9060005260206000209001600087815481101515610a8957fe5b906000526020600020900154600188815481101515610aa457fe5b906000526020600020900160009054906101000a900473ffffffffffffffffffffffffffffffffffffffff16828054600181600116156101000203166002900480601f016020809104026020016040519081016040528092919081815260200182805460018160011615610100020316600290048015610b655780601f10610b3a57610100808354040283529160200191610b65565b820191906000526020600020905b815481529060010190602001808311610b4857829003601f168201915b5050505050925093509350935093509193509193565b610b83610df9565b610b8b610f39565b610b93610f39565b610b9b610df9565b610ba3610f39565b6000808995508894506001855187510101604051805910610bc15750595b9080825280601f01601f19166020018201604052509350839250600091505b8551821015610c93578582815181101515610bf757fe5b9060200101517f010000000000000000000000000000000000000000000000000000000000000090047f0100000000000000000000000000000000000000000000000000000000000000028382806001019350815181101515610c5657fe5b9060200101907effffffffffffffffffffffffffffffffffffffffffffffffffffffffffffff1916908160001a9053508180600101925050610be0565b876000815181101515610ca257fe5b9060200101517f010000000000000000000000000000000000000000000000000000000000000090047f0100000000000000000000000000000000000000000000000000000000000000028382806001019350815181101515610d0157fe5b9060200101907effffffffffffffffffffffffffffffffffffffffffffffffffffffffffffff1916908160001a905350600091505b8451821015610de9578482815181101515610d4d57fe5b9060200101517f010000000000000000000000000000000000000000000000000000000000000090047f0100000000000000000000000000000000000000000000000000000000000000028382806001019350815181101515610dac57fe5b9060200101907effffffffffffffffffffffffffffffffffffffffffffffffffffffffffffff1916908160001a9053508180600101925050610d36565b8296505050505050509392505050565b602060405190810160405280600081525090565b602060405190810160405280600081525090565b602060405190810160405280600081525090565b815481835581811511610e5c57818360005260206000209182019101610e5b9190610f4d565b5b505050565b828054600181600116156101000203166002900490600052602060002090601f016020900481019282601f10610ea257805160ff1916838001178555610ed0565b82800160010185558215610ed0579182015b82811115610ecf578251825591602001919060010190610eb4565b5b509050610edd9190610f79565b5090565b815481835581811511610f0857818360005260206000209182019101610f079190610f79565b5b505050565b815481835581811511610f3457818360005260206000209182019101610f339190610f79565b5b505050565b602060405190810160405280600081525090565b610f7691905b80821115610f725760008181610f699190610f9e565b50600101610f53565b5090565b90565b610f9b91905b80821115610f97576000816000905550600101610f7f565b5090565b90565b50805460018160011615610100020316600290046000825580601f10610fc45750610fe3565b601f016020900490600052602060002090810190610fe29190610f79565b5b505600a165627a7a723058203061ceb0b24fdb6fcc39ff7ab3818e06f1029474c13a643f418fa0e6021b5b930029",
  "source": "pragma solidity ^0.4.18;\n\ncontract Diamonds {\n   // separate arrays for each diamond field. Index is the id\n    uint[] diamondPrices;\n    address[] diamondOwners;\n    string[] diamondNames;\n    string diamondNamesString;\n\n    address private owner;\n    \n    function Diamonds() public {\n        // constructor function\n        owner = msg.sender; // contract owner\n    }\n    \n    function createDiamond(string name, uint price) public {\n        diamondNames.push(name);\n        diamondNamesString = concat(diamondNamesString, name, \"|\");\n        diamondPrices.push(price);\n        diamondOwners.push(msg.sender);\n    }\n    \n    function buy(uint id) payable public {\n        // id is index of diamond in the arrays\n        require(diamondPrices.length > id && \n            msg.value >= diamondPrices[id] * 1e18);\n\n        diamondOwners[id].transfer(diamondPrices[id] * 1e18);\n        diamondOwners[id] = msg.sender; // change owner\n    }\n    \n    function getDiamond(uint id) view public \n        returns (uint, string, uint, address) \n    {\n        require(diamondPrices.length > id);\n        return (id, diamondNames[id], diamondPrices[id], diamondOwners[id]);\n    }\n    \n    function getLastDiamond() view public \n        returns (uint, string, uint, address) \n    {\n        uint id = diamondPrices.length - 1;\n        return (id, diamondNames[id], diamondPrices[id], diamondOwners[id]);\n    }\n\n    function getAllDiamonds() view public \n        returns (string, uint[], address[]) \n    {\n        return (diamondNamesString, diamondPrices, diamondOwners);\n    }\n    \n    function kill() public {\n        // destroy contract and send all remaining funds to contract owner's address\n        require (msg.sender == owner);\n        selfdestruct(owner);\n    }\n    \n    function concat(string _base, string _value, string _separator) \n        pure \n        internal \n        returns (string) \n        {\n        bytes memory _baseBytes = bytes(_base);\n        bytes memory _valueBytes = bytes(_value);\n        \n        string memory _tmpValue = new string(_baseBytes.length + _valueBytes.length + 1);\n        bytes memory _newValue = bytes(_tmpValue);\n        \n        uint i;\n        uint j;\n        \n        for (i=0; i < _baseBytes.length; i++) {\n            _newValue[j++] = _baseBytes[i];\n        }\n        \n        _newValue[j++] = bytes(_separator)[0];\n        \n        for (i=0; i < _valueBytes.length; i++) {\n            _newValue[j++] = _valueBytes[i];\n        }\n        \n        return string(_newValue);\n    }\n}",
  "sourcePath": "/Users/william/Downloads/noncense/contracts/Diamonds.sol",
  "compiler": {
    "name": "solc",
    "version": "0.4.18+commit.9cf6e910.Emscripten.clang"
  },
  "schemaVersion": "1.0.1",
  "updatedAt": "2017-12-14T20:11:08.345Z"
}