{
  "contractName": "Diamonds",
  "abi": [
    {
      "constant": true,
      "inputs": [
        {
          "name": "",
          "type": "uint256"
        }
      ],
      "name": "allDiamonds",
      "outputs": [
        {
          "name": "id",
          "type": "uint256"
        },
        {
          "name": "price",
          "type": "uint256"
        },
        {
          "name": "ownerAddr",
          "type": "address"
        }
      ],
      "payable": false,
      "stateMutability": "view",
      "type": "function"
    },
    {
      "constant": true,
      "inputs": [
        {
          "name": "",
          "type": "uint256"
        }
      ],
      "name": "diamonds",
      "outputs": [
        {
          "name": "id",
          "type": "uint256"
        },
        {
          "name": "price",
          "type": "uint256"
        },
        {
          "name": "ownerAddr",
          "type": "address"
        }
      ],
      "payable": false,
      "stateMutability": "view",
      "type": "function"
    },
    {
      "constant": false,
      "inputs": [],
      "name": "kill",
      "outputs": [],
      "payable": false,
      "stateMutability": "nonpayable",
      "type": "function"
    },
    {
      "constant": true,
      "inputs": [],
      "name": "getDiamondId",
      "outputs": [
        {
          "name": "diamondId",
          "type": "uint256"
        }
      ],
      "payable": false,
      "stateMutability": "view",
      "type": "function"
    },
    {
      "constant": false,
      "inputs": [
        {
          "name": "price",
          "type": "uint256"
        }
      ],
      "name": "createDiamond",
      "outputs": [],
      "payable": false,
      "stateMutability": "nonpayable",
      "type": "function"
    },
    {
      "constant": false,
      "inputs": [
        {
          "name": "diamondId",
          "type": "uint256"
        }
      ],
      "name": "buy",
      "outputs": [],
      "payable": true,
      "stateMutability": "payable",
      "type": "function"
    },
    {
      "constant": false,
      "inputs": [
        {
          "name": "diamondId",
          "type": "uint256"
        }
      ],
      "name": "getDiamond",
      "outputs": [
        {
          "name": "",
          "type": "uint256"
        },
        {
          "name": "",
          "type": "uint256"
        },
        {
          "name": "",
          "type": "address"
        }
      ],
      "payable": false,
      "stateMutability": "nonpayable",
      "type": "function"
    },
    {
      "constant": false,
      "inputs": [],
      "name": "diamondsTot",
      "outputs": [
        {
          "name": "",
          "type": "address"
        },
        {
          "name": "",
          "type": "uint256"
        }
      ],
      "payable": false,
      "stateMutability": "nonpayable",
      "type": "function"
    },
    {
      "inputs": [],
      "payable": false,
      "stateMutability": "nonpayable",
      "type": "constructor"
    },
    {
      "anonymous": false,
      "inputs": [
        {
          "indexed": false,
          "name": "",
          "type": "uint256"
        },
        {
          "indexed": false,
          "name": "",
          "type": "uint256"
        },
        {
          "indexed": false,
          "name": "",
          "type": "address"
        }
      ],
      "name": "DiamondLogger",
      "type": "event"
    }
  ],
  "bytecode": "0x6060604052341561000f57600080fd5b33600260006101000a81548173ffffffffffffffffffffffffffffffffffffffff021916908373ffffffffffffffffffffffffffffffffffffffff1602179055506108618061005f6000396000f30060606040526004361061008e576000357c0100000000000000000000000000000000000000000000000000000000900463ffffffff1680631e570dd4146100935780633951e09b1461010457806341c0e1b5146101755780638ae326101461018a578063b5a32636146101b3578063d96a094a146101d6578063e3ed14db146101ee578063e61254241461025f575b600080fd5b341561009e57600080fd5b6100b460048080359060200190919050506102bb565b604051808481526020018381526020018273ffffffffffffffffffffffffffffffffffffffff1673ffffffffffffffffffffffffffffffffffffffff168152602001935050505060405180910390f35b341561010f57600080fd5b6101256004808035906020019091905050610314565b604051808481526020018381526020018273ffffffffffffffffffffffffffffffffffffffff1673ffffffffffffffffffffffffffffffffffffffff168152602001935050505060405180910390f35b341561018057600080fd5b61018861035e565b005b341561019557600080fd5b61019d6103f1565b6040518082815260200191505060405180910390f35b34156101be57600080fd5b6101d460048080359060200190919050506103fd565b005b6101ec600480803590602001909190505061055e565b005b34156101f957600080fd5b61020f60048080359060200190919050506106ae565b604051808481526020018381526020018273ffffffffffffffffffffffffffffffffffffffff1673ffffffffffffffffffffffffffffffffffffffff168152602001935050505060405180910390f35b341561026a57600080fd5b610272610763565b604051808373ffffffffffffffffffffffffffffffffffffffff1673ffffffffffffffffffffffffffffffffffffffff1681526020018281526020019250505060405180910390f35b6000818154811015156102ca57fe5b90600052602060002090600302016000915090508060000154908060010154908060020160009054906101000a900473ffffffffffffffffffffffffffffffffffffffff16905083565b60016020528060005260406000206000915090508060000154908060010154908060020160009054906101000a900473ffffffffffffffffffffffffffffffffffffffff16905083565b600260009054906101000a900473ffffffffffffffffffffffffffffffffffffffff1673ffffffffffffffffffffffffffffffffffffffff163373ffffffffffffffffffffffffffffffffffffffff1614156103ef57600260009054906101000a900473ffffffffffffffffffffffffffffffffffffffff1673ffffffffffffffffffffffffffffffffffffffff16ff5b565b60008080549050905090565b600080548060010182816104119190610775565b91600052602060002090600302016000606060405190810160405280600081526020018581526020013373ffffffffffffffffffffffffffffffffffffffff168152509091909150600082015181600001556020820151816001015560408201518160020160006101000a81548173ffffffffffffffffffffffffffffffffffffffff021916908373ffffffffffffffffffffffffffffffffffffffff160217905550505050606060405190810160405280600081526020018281526020013373ffffffffffffffffffffffffffffffffffffffff1681525060016000808152602001908152602001600020600082015181600001556020820151816001015560408201518160020160006101000a81548173ffffffffffffffffffffffffffffffffffffffff021916908373ffffffffffffffffffffffffffffffffffffffff16021790555090505050565b8060008054905011801561059c5750670de0b6b3a764000060008281548110151561058557fe5b906000526020600020906003020160010154023410155b156106ab576000818154811015156105b057fe5b906000526020600020906003020160020160009054906101000a900473ffffffffffffffffffffffffffffffffffffffff1673ffffffffffffffffffffffffffffffffffffffff166108fc670de0b6b3a764000060008481548110151561061357fe5b906000526020600020906003020160010154029081150290604051600060405180830381858888f19350505050151561064b57600080fd5b3360008281548110151561065b57fe5b906000526020600020906003020160020160006101000a81548173ffffffffffffffffffffffffffffffffffffffff021916908373ffffffffffffffffffffffffffffffffffffffff1602179055505b50565b60008060006106bb6107a7565b600160008681526020019081526020016000206060604051908101604052908160008201548152602001600182015481526020016002820160009054906101000a900473ffffffffffffffffffffffffffffffffffffffff1673ffffffffffffffffffffffffffffffffffffffff1673ffffffffffffffffffffffffffffffffffffffff16815250509050806000015181602001518260400151935093509350509193909250565b60008033600080549050915091509091565b8154818355818115116107a2576003028160030283600052602060002091820191016107a191906107df565b5b505050565b6060604051908101604052806000815260200160008152602001600073ffffffffffffffffffffffffffffffffffffffff1681525090565b61083291905b8082111561082e5760008082016000905560018201600090556002820160006101000a81549073ffffffffffffffffffffffffffffffffffffffff0219169055506003016107e5565b5090565b905600a165627a7a72305820db86838bbf9e9c3178f609ad868ede76f9b028f1afd3918580eb19ec6e06a1aa0029",
  "source": "pragma solidity ^0.4.0;\n\ncontract Diamonds {\n    struct Diamond {\n        uint id;\n        uint price; // in ether (should convert to Wei)\n        address ownerAddr;\n    }\n    \n    Diamond[] public allDiamonds; // array of Diamond structs\n    mapping(uint => Diamond) public diamonds; \n    address owner;\n    \n    event DiamondLogger(uint, uint, address);\n    \n    function Diamonds() public {\n        owner = msg.sender;\n    }\n\n    function getDiamondId() public constant returns (uint diamondId) {\n        return allDiamonds.length;\n    }\n    \n    function createDiamond(uint price) public {\n        // uint diamondId = allDiamonds.length;\n        allDiamonds.push(Diamond(0, price, msg.sender));\n        diamonds[0] = Diamond(0, price, msg.sender); \n        \n        // DiamondLogger(allDiamonds[diamondId].id, allDiamonds[diamondId].price, allDiamonds[diamondId].ownerAddr);\n    }\n    \n    function buy(uint diamondId) payable public {\n        //find diamond (diamondId should be index of diamond in allDiamonds)\n        if (allDiamonds.length > diamondId && \n            msg.value >= allDiamonds[diamondId].price * 1e18) {\n            allDiamonds[diamondId].ownerAddr.transfer(allDiamonds[diamondId].price * 1e18);\n            allDiamonds[diamondId].ownerAddr = msg.sender;\n        }\n    }\n\n    function getDiamond(uint diamondId) public returns(uint, uint, address) {\n        Diamond memory d = diamonds[diamondId];\n        \n        // break the struct's members out into a tuple\n        // in the same order that they appear in the struct\n        return (d.id, d.price, d.ownerAddr);\n    }\n\n    function diamondsTot() public returns (address, uint) {\n        return (msg.sender, allDiamonds.length); \n    }\n    \n    function kill() public {\n        if (msg.sender == owner) \n          selfdestruct(owner);\n    }\n}",
  "sourcePath": "/Users/cylinda/Documents/app_academy/noncense/contracts/Diamonds.sol",
  "compiler": {
    "name": "solc",
    "version": "0.4.18+commit.9cf6e910.Emscripten.clang"
  },
  "schemaVersion": "1.0.1",
  "updatedAt": "2017-12-14T01:52:37.582Z"
}