{
  "contractName": "Diamonds",
  "abi": [
    {
      "constant": false,
      "inputs": [],
      "name": "kill",
      "outputs": [],
      "payable": false,
      "stateMutability": "nonpayable",
      "type": "function"
    },
    {
      "constant": true,
      "inputs": [],
      "name": "getAllDiamonds",
      "outputs": [
        {
          "name": "",
          "type": "string"
        },
        {
          "name": "",
          "type": "uint256[]"
        },
        {
          "name": "",
          "type": "address[]"
        }
      ],
      "payable": false,
      "stateMutability": "view",
      "type": "function"
    },
    {
      "constant": false,
      "inputs": [
        {
          "name": "name",
          "type": "string"
        },
        {
          "name": "price",
          "type": "uint256"
        }
      ],
      "name": "createDiamond",
      "outputs": [
        {
          "name": "",
          "type": "uint256"
        },
        {
          "name": "",
          "type": "string"
        },
        {
          "name": "",
          "type": "uint256"
        },
        {
          "name": "",
          "type": "address"
        }
      ],
      "payable": false,
      "stateMutability": "nonpayable",
      "type": "function"
    },
    {
      "constant": false,
      "inputs": [
        {
          "name": "diamondId",
          "type": "uint256"
        }
      ],
      "name": "buy",
      "outputs": [
        {
          "name": "",
          "type": "uint256"
        }
      ],
      "payable": true,
      "stateMutability": "payable",
      "type": "function"
    },
    {
      "constant": true,
      "inputs": [
        {
          "name": "diamondId",
          "type": "uint256"
        }
      ],
      "name": "getDiamond",
      "outputs": [
        {
          "name": "",
          "type": "uint256"
        },
        {
          "name": "",
          "type": "string"
        },
        {
          "name": "",
          "type": "uint256"
        },
        {
          "name": "",
          "type": "address"
        }
      ],
      "payable": false,
      "stateMutability": "view",
      "type": "function"
    },
    {
      "constant": true,
      "inputs": [],
      "name": "diamondNamesString",
      "outputs": [
        {
          "name": "",
          "type": "string"
        }
      ],
      "payable": false,
      "stateMutability": "view",
      "type": "function"
    },
    {
      "inputs": [],
      "payable": false,
      "stateMutability": "nonpayable",
      "type": "constructor"
    }
  ],
  "bytecode": "0x6060604052341561000f57600080fd5b33600460006101000a81548173ffffffffffffffffffffffffffffffffffffffff021916908373ffffffffffffffffffffffffffffffffffffffff1602179055506111438061005f6000396000f300606060405260043610610078576000357c0100000000000000000000000000000000000000000000000000000000900463ffffffff16806341c0e1b51461007d578063a9856cf914610092578063cf83078d146101b0578063d96a094a146102d0578063e3ed14db146102fc578063f44d427e146103d9575b600080fd5b341561008857600080fd5b610090610467565b005b341561009d57600080fd5b6100a56104fe565b60405180806020018060200180602001848103845287818151815260200191508051906020019080838360005b838110156100ed5780820151818401526020810190506100d2565b50505050905090810190601f16801561011a5780820380516001836020036101000a031916815260200191505b50848103835286818151815260200191508051906020019060200280838360005b8381101561015657808201518184015260208101905061013b565b50505050905001848103825285818151815260200191508051906020019060200280838360005b8381101561019857808201518184015260208101905061017d565b50505050905001965050505050505060405180910390f35b34156101bb57600080fd5b610214600480803590602001908201803590602001908080601f0160208091040260200160405190810160405280939291908181526020018383808284378201915050505050509190803590602001909190505061069d565b60405180858152602001806020018481526020018373ffffffffffffffffffffffffffffffffffffffff1673ffffffffffffffffffffffffffffffffffffffff168152602001828103825285818151815260200191508051906020019080838360005b83811015610292578082015181840152602081019050610277565b50505050905090810190601f1680156102bf5780820380516001836020036101000a031916815260200191505b509550505050505060405180910390f35b6102e6600480803590602001909190505061098e565b6040518082815260200191505060405180910390f35b341561030757600080fd5b61031d6004808035906020019091905050610ad2565b60405180858152602001806020018481526020018373ffffffffffffffffffffffffffffffffffffffff1673ffffffffffffffffffffffffffffffffffffffff168152602001828103825285818151815260200191508051906020019080838360005b8381101561039b578082015181840152602081019050610380565b50505050905090810190601f1680156103c85780820380516001836020036101000a031916815260200191505b509550505050505060405180910390f35b34156103e457600080fd5b6103ec610c0e565b6040518080602001828103825283818151815260200191508051906020019080838360005b8381101561042c578082015181840152602081019050610411565b50505050905090810190601f1680156104595780820380516001836020036101000a031916815260200191505b509250505060405180910390f35b600460009054906101000a900473ffffffffffffffffffffffffffffffffffffffff1673ffffffffffffffffffffffffffffffffffffffff163373ffffffffffffffffffffffffffffffffffffffff161415156104c357600080fd5b600460009054906101000a900473ffffffffffffffffffffffffffffffffffffffff1673ffffffffffffffffffffffffffffffffffffffff16ff5b610506610f2a565b61050e610f3e565b610516610f52565b600360006001828054600181600116156101000203166002900480601f0160208091040260200160405190810160405280929190818152602001828054600181600116156101000203166002900480156105b15780601f10610586576101008083540402835291602001916105b1565b820191906000526020600020905b81548152906001019060200180831161059457829003601f168201915b505050505092508180548060200260200160405190810160405280929190818152602001828054801561060357602002820191906000526020600020905b8154815260200190600101908083116105ef575b505050505091508080548060200260200160405190810160405280929190818152602001828054801561068b57602002820191906000526020600020905b8160009054906101000a900473ffffffffffffffffffffffffffffffffffffffff1673ffffffffffffffffffffffffffffffffffffffff1681526020019060010190808311610641575b50505050509050925092509250909192565b60006106a7610f2a565b6000806000600280548060010182816106c09190610f66565b9160005260206000209001600089909190915090805190602001906106e6929190610f92565b50506107c260038054600181600116156101000203166002900480601f0160208091040260200160405190810160405280929190818152602001828054600181600116156101000203166002900480156107815780601f1061075657610100808354040283529160200191610781565b820191906000526020600020905b81548152906001019060200180831161076457829003601f168201915b5050505050886040805190810160405280600181526020017f7c00000000000000000000000000000000000000000000000000000000000000815250610cac565b600390805190602001906107d7929190610f92565b50600080548060010182816107ec9190611012565b91600052602060002090016000889091909150555060018054806001018281610815919061103e565b9160005260206000209001600033909190916101000a81548173ffffffffffffffffffffffffffffffffffffffff021916908373ffffffffffffffffffffffffffffffffffffffff1602179055505060016000805490500390508060028281548110151561087f57fe5b906000526020600020900160008381548110151561089957fe5b9060005260206000209001546001848154811015156108b457fe5b906000526020600020900160009054906101000a900473ffffffffffffffffffffffffffffffffffffffff16828054600181600116156101000203166002900480601f0160208091040260200160405190810160405280929190818152602001828054600181600116156101000203166002900480156109755780601f1061094a57610100808354040283529160200191610975565b820191906000526020600020905b81548152906001019060200180831161095857829003601f168201915b5050505050925094509450945094505092959194509250565b6000816000805490501180156109c85750670de0b6b3a76400006000838154811015156109b757fe5b906000526020600020900154023410155b15156109d357600080fd5b6001828154811015156109e257fe5b906000526020600020900160009054906101000a900473ffffffffffffffffffffffffffffffffffffffff1673ffffffffffffffffffffffffffffffffffffffff166108fc670de0b6b3a7640000600085815481101515610a3f57fe5b906000526020600020900154029081150290604051600060405180830381858888f193505050501515610a7157600080fd5b33600183815481101515610a8157fe5b906000526020600020900160006101000a81548173ffffffffffffffffffffffffffffffffffffffff021916908373ffffffffffffffffffffffffffffffffffffffff160217905550819050919050565b6000610adc610f2a565b60008084600080549050111515610af257600080fd5b84600286815481101515610b0257fe5b9060005260206000209001600087815481101515610b1c57fe5b906000526020600020900154600188815481101515610b3757fe5b906000526020600020900160009054906101000a900473ffffffffffffffffffffffffffffffffffffffff16828054600181600116156101000203166002900480601f016020809104026020016040519081016040528092919081815260200182805460018160011615610100020316600290048015610bf85780601f10610bcd57610100808354040283529160200191610bf8565b820191906000526020600020905b815481529060010190602001808311610bdb57829003601f168201915b5050505050925093509350935093509193509193565b60038054600181600116156101000203166002900480601f016020809104026020016040519081016040528092919081815260200182805460018160011615610100020316600290048015610ca45780601f10610c7957610100808354040283529160200191610ca4565b820191906000526020600020905b815481529060010190602001808311610c8757829003601f168201915b505050505081565b610cb4610f2a565b610cbc61106a565b610cc461106a565b610ccc610f2a565b610cd461106a565b6000808995508894506001855187510101604051805910610cf25750595b9080825280601f01601f19166020018201604052509350839250600091505b8551821015610dc4578582815181101515610d2857fe5b9060200101517f010000000000000000000000000000000000000000000000000000000000000090047f0100000000000000000000000000000000000000000000000000000000000000028382806001019350815181101515610d8757fe5b9060200101907effffffffffffffffffffffffffffffffffffffffffffffffffffffffffffff1916908160001a9053508180600101925050610d11565b876000815181101515610dd357fe5b9060200101517f010000000000000000000000000000000000000000000000000000000000000090047f0100000000000000000000000000000000000000000000000000000000000000028382806001019350815181101515610e3257fe5b9060200101907effffffffffffffffffffffffffffffffffffffffffffffffffffffffffffff1916908160001a905350600091505b8451821015610f1a578482815181101515610e7e57fe5b9060200101517f010000000000000000000000000000000000000000000000000000000000000090047f0100000000000000000000000000000000000000000000000000000000000000028382806001019350815181101515610edd57fe5b9060200101907effffffffffffffffffffffffffffffffffffffffffffffffffffffffffffff1916908160001a9053508180600101925050610e67565b8296505050505050509392505050565b602060405190810160405280600081525090565b602060405190810160405280600081525090565b602060405190810160405280600081525090565b815481835581811511610f8d57818360005260206000209182019101610f8c919061107e565b5b505050565b828054600181600116156101000203166002900490600052602060002090601f016020900481019282601f10610fd357805160ff1916838001178555611001565b82800160010185558215611001579182015b82811115611000578251825591602001919060010190610fe5565b5b50905061100e91906110aa565b5090565b8154818355818115116110395781836000526020600020918201910161103891906110aa565b5b505050565b8154818355818115116110655781836000526020600020918201910161106491906110aa565b5b505050565b602060405190810160405280600081525090565b6110a791905b808211156110a3576000818161109a91906110cf565b50600101611084565b5090565b90565b6110cc91905b808211156110c85760008160009055506001016110b0565b5090565b90565b50805460018160011615610100020316600290046000825580601f106110f55750611114565b601f01602090049060005260206000209081019061111391906110aa565b5b505600a165627a7a72305820c81837f0307a1664cc8e646be33ecad35e3b77b00a818772b63cf3b0296e7dac0029",
  "source": "pragma solidity ^0.4.18;\n\ncontract Diamonds {\n  // separate arrays for each diamond field. Index is the diamondId\n   uint[] diamondPrices;\n   address[] diamondOwners;\n   string[] diamondNames;\n   string public diamondNamesString;\n\n   address private owner;\n   \n   function Diamonds() public {\n       // constructor function\n       owner = msg.sender; // contract owner\n   }\n   \n   function createDiamond(string name, uint price) public returns (uint, string, uint, address) {\n       diamondNames.push(name);\n       diamondNamesString = concat(diamondNamesString, name, \"|\");\n       diamondPrices.push(price);\n       diamondOwners.push(msg.sender);\n       uint diamondId = diamondPrices.length - 1; \n\n       return (diamondId, diamondNames[diamondId], diamondPrices[diamondId], diamondOwners[diamondId] ); // return diamondId\n   }\n   \n   function buy(uint diamondId) payable public returns (uint) {\n       // diamondId is index of diamond in the arrays\n       require(diamondPrices.length > diamondId &&\n           msg.value >= diamondPrices[diamondId] * 1e18);\n\n       diamondOwners[diamondId].transfer(diamondPrices[diamondId] * 1e18);\n       diamondOwners[diamondId] = msg.sender; // change owner\n\n       return diamondId;\n   }\n\n   function getAllDiamonds() view public returns (string, uint[], address[]) {\n       return (diamondNamesString, diamondPrices, diamondOwners);\n   }\n\n   function getDiamond(uint diamondId)\n       view\n       public\n       returns (uint, string, uint, address)\n   {\n       require(diamondPrices.length > diamondId);\n       return (diamondId, diamondNames[diamondId], diamondPrices[diamondId], diamondOwners[diamondId]);\n   }\n   \n   function kill() public {\n       // destroy contract and send all remaining funds to contract owner’s address\n       require (msg.sender == owner);\n       selfdestruct(owner);\n   }\n   \n   function concat(string _base, string _value, string _separator)\n       pure\n       internal\n       returns (string)\n       {\n       bytes memory _baseBytes = bytes(_base);\n       bytes memory _valueBytes = bytes(_value);\n       \n       string memory _tmpValue = new string(_baseBytes.length + _valueBytes.length + 1);\n       bytes memory _newValue = bytes(_tmpValue);\n       \n       uint i;\n       uint j;\n       \n       for (i=0; i < _baseBytes.length; i++) {\n           _newValue[j++] = _baseBytes[i];\n       }\n       \n       _newValue[j++] = bytes(_separator)[0];\n       \n       for (i=0; i < _valueBytes.length; i++) {\n           _newValue[j++] = _valueBytes[i];\n       }\n       \n       return string(_newValue);\n   }\n}",
  "sourcePath": "/Users/KevinLee/Documents/blockchain/noncense/contracts/Diamonds.sol",
  "compiler": {
    "name": "solc",
    "version": "0.4.18+commit.9cf6e910.Emscripten.clang"
  },
  "schemaVersion": "1.0.1",
  "updatedAt": "2017-12-14T19:15:43.786Z"
}