{
  "contractName": "Diamonds",
  "abi": [
    {
      "constant": true,
      "inputs": [
        {
          "name": "id",
          "type": "uint256"
        }
      ],
      "name": "getDiamondDetails",
      "outputs": [
        {
          "name": "",
          "type": "uint256"
        },
        {
          "name": "",
          "type": "uint8"
        },
        {
          "name": "",
          "type": "uint16"
        },
        {
          "name": "",
          "type": "uint8"
        },
        {
          "name": "",
          "type": "uint8"
        },
        {
          "name": "",
          "type": "uint8"
        }
      ],
      "payable": false,
      "stateMutability": "view",
      "type": "function"
    },
    {
      "constant": true,
      "inputs": [],
      "name": "getLastDiamond",
      "outputs": [
        {
          "name": "",
          "type": "uint256"
        },
        {
          "name": "",
          "type": "string"
        },
        {
          "name": "",
          "type": "uint256"
        },
        {
          "name": "",
          "type": "address"
        },
        {
          "name": "",
          "type": "string"
        }
      ],
      "payable": false,
      "stateMutability": "view",
      "type": "function"
    },
    {
      "constant": false,
      "inputs": [],
      "name": "kill",
      "outputs": [],
      "payable": false,
      "stateMutability": "nonpayable",
      "type": "function"
    },
    {
      "constant": true,
      "inputs": [],
      "name": "getLastDiamondDetails",
      "outputs": [
        {
          "name": "",
          "type": "uint256"
        },
        {
          "name": "",
          "type": "uint8"
        },
        {
          "name": "",
          "type": "uint16"
        },
        {
          "name": "",
          "type": "uint8"
        },
        {
          "name": "",
          "type": "uint8"
        },
        {
          "name": "",
          "type": "uint8"
        }
      ],
      "payable": false,
      "stateMutability": "view",
      "type": "function"
    },
    {
      "constant": false,
      "inputs": [
        {
          "name": "id",
          "type": "uint256"
        },
        {
          "name": "price",
          "type": "uint256"
        }
      ],
      "name": "updatePrice",
      "outputs": [],
      "payable": false,
      "stateMutability": "nonpayable",
      "type": "function"
    },
    {
      "constant": true,
      "inputs": [],
      "name": "getAllDiamonds",
      "outputs": [
        {
          "name": "",
          "type": "string"
        },
        {
          "name": "",
          "type": "uint256[]"
        },
        {
          "name": "",
          "type": "address[]"
        },
        {
          "name": "",
          "type": "string"
        }
      ],
      "payable": false,
      "stateMutability": "view",
      "type": "function"
    },
    {
      "constant": false,
      "inputs": [
        {
          "name": "id",
          "type": "uint256"
        }
      ],
      "name": "buy",
      "outputs": [],
      "payable": true,
      "stateMutability": "payable",
      "type": "function"
    },
    {
      "constant": true,
      "inputs": [
        {
          "name": "id",
          "type": "uint256"
        }
      ],
      "name": "getDiamond",
      "outputs": [
        {
          "name": "",
          "type": "uint256"
        },
        {
          "name": "",
          "type": "string"
        },
        {
          "name": "",
          "type": "uint256"
        },
        {
          "name": "",
          "type": "address"
        },
        {
          "name": "",
          "type": "string"
        }
      ],
      "payable": false,
      "stateMutability": "view",
      "type": "function"
    },
    {
      "constant": false,
      "inputs": [
        {
          "name": "name",
          "type": "string"
        },
        {
          "name": "price",
          "type": "uint256"
        },
        {
          "name": "url",
          "type": "string"
        },
        {
          "name": "shape",
          "type": "uint8"
        },
        {
          "name": "carat",
          "type": "uint16"
        },
        {
          "name": "grade",
          "type": "uint8"
        },
        {
          "name": "cut",
          "type": "uint8"
        },
        {
          "name": "color",
          "type": "uint8"
        }
      ],
      "name": "createDiamond",
      "outputs": [],
      "payable": false,
      "stateMutability": "nonpayable",
      "type": "function"
    },
    {
      "inputs": [],
      "payable": false,
      "stateMutability": "nonpayable",
      "type": "constructor"
    }
  ],
  "bytecode": "0x6060604052341561000f57600080fd5b33600b60006101000a81548173ffffffffffffffffffffffffffffffffffffffff021916908373ffffffffffffffffffffffffffffffffffffffff160217905550611af08061005f6000396000f300606060405260043610610099576000357c0100000000000000000000000000000000000000000000000000000000900463ffffffff1680630e065ccd1461009e578063287bf6d51461011857806341c0e1b51461025357806362447dbe1461026857806382367b2d146102d4578063a9856cf914610300578063d96a094a1461048a578063e3ed14db146104a2578063ed039502146105eb575b600080fd5b34156100a957600080fd5b6100bf60048080359060200190919050506106d1565b604051808781526020018660ff1660ff1681526020018561ffff1661ffff1681526020018460ff1660ff1681526020018360ff1660ff1681526020018260ff1660ff168152602001965050505050505060405180910390f35b341561012357600080fd5b61012b6107df565b60405180868152602001806020018581526020018473ffffffffffffffffffffffffffffffffffffffff1673ffffffffffffffffffffffffffffffffffffffff16815260200180602001838103835287818151815260200191508051906020019080838360005b838110156101ad578082015181840152602081019050610192565b50505050905090810190601f1680156101da5780820380516001836020036101000a031916815260200191505b50838103825284818151815260200191508051906020019080838360005b838110156102135780820151818401526020810190506101f8565b50505050905090810190601f1680156102405780820380516001836020036101000a031916815260200191505b5097505050505050505060405180910390f35b341561025e57600080fd5b6102666109d6565b005b341561027357600080fd5b61027b610a6d565b604051808781526020018660ff1660ff1681526020018561ffff1661ffff1681526020018460ff1660ff1681526020018360ff1660ff1681526020018260ff1660ff168152602001965050505050505060405180910390f35b34156102df57600080fd5b6102fe6004808035906020019091908035906020019091905050610b88565b005b341561030b57600080fd5b610313610c2f565b6040518080602001806020018060200180602001858103855289818151815260200191508051906020019080838360005b8381101561035f578082015181840152602081019050610344565b50505050905090810190601f16801561038c5780820380516001836020036101000a031916815260200191505b50858103845288818151815260200191508051906020019060200280838360005b838110156103c85780820151818401526020810190506103ad565b50505050905001858103835287818151815260200191508051906020019060200280838360005b8381101561040a5780820151818401526020810190506103ef565b50505050905001858103825286818151815260200191508051906020019080838360005b8381101561044957808201518184015260208101905061042e565b50505050905090810190601f1680156104765780820380516001836020036101000a031916815260200191505b509850505050505050505060405180910390f35b6104a06004808035906020019091905050610e77565b005b34156104ad57600080fd5b6104c36004808035906020019091905050610fa0565b60405180868152602001806020018581526020018473ffffffffffffffffffffffffffffffffffffffff1673ffffffffffffffffffffffffffffffffffffffff16815260200180602001838103835287818151815260200191508051906020019080838360005b8381101561054557808201518184015260208101905061052a565b50505050905090810190601f1680156105725780820380516001836020036101000a031916815260200191505b50838103825284818151815260200191508051906020019080838360005b838110156105ab578082015181840152602081019050610590565b50505050905090810190601f1680156105d85780820380516001836020036101000a031916815260200191505b5097505050505050505060405180910390f35b34156105f657600080fd5b6106cf600480803590602001908201803590602001908080601f0160208091040260200160405190810160405280939291908181526020018383808284378201915050505050509190803590602001909190803590602001908201803590602001908080601f0160208091040260200160405190810160405280939291908181526020018383808284378201915050505050509190803560ff1690602001909190803561ffff1690602001909190803560ff1690602001909190803560ff1690602001909190803560ff1690602001909190505061119e565b005b600080600080600080866006888154811015156106ea57fe5b90600052602060002090602091828204019190069054906101000a900460ff1660078981548110151561071957fe5b90600052602060002090601091828204019190066002029054906101000a900461ffff1660088a81548110151561074c57fe5b90600052602060002090602091828204019190069054906101000a900460ff1660098b81548110151561077b57fe5b90600052602060002090602091828204019190069054906101000a900460ff16600a8c8154811015156107aa57fe5b90600052602060002090602091828204019190069054906101000a900460ff1695509550955095509550955091939550919395565b60006107e9611863565b6000806107f4611863565b600060016002805490500390508060008281548110151561081157fe5b906000526020600020900160028381548110151561082b57fe5b90600052602060002090015460058481548110151561084657fe5b906000526020600020900160009054906101000a900473ffffffffffffffffffffffffffffffffffffffff1660038581548110151561088157fe5b9060005260206000209001838054600181600116156101000203166002900480601f0160208091040260200160405190810160405280929190818152602001828054600181600116156101000203166002900480156109215780601f106108f657610100808354040283529160200191610921565b820191906000526020600020905b81548152906001019060200180831161090457829003601f168201915b50505050509350808054600181600116156101000203166002900480601f0160208091040260200160405190810160405280929190818152602001828054600181600116156101000203166002900480156109bd5780601f10610992576101008083540402835291602001916109bd565b820191906000526020600020905b8154815290600101906020018083116109a057829003601f168201915b5050505050905095509550955095509550509091929394565b600b60009054906101000a900473ffffffffffffffffffffffffffffffffffffffff1673ffffffffffffffffffffffffffffffffffffffff163373ffffffffffffffffffffffffffffffffffffffff16141515610a3257600080fd5b600b60009054906101000a900473ffffffffffffffffffffffffffffffffffffffff1673ffffffffffffffffffffffffffffffffffffffff16ff5b6000806000806000806000600160028054905003905080600682815481101515610a9357fe5b90600052602060002090602091828204019190069054906101000a900460ff16600783815481101515610ac257fe5b90600052602060002090601091828204019190066002029054906101000a900461ffff16600884815481101515610af557fe5b90600052602060002090602091828204019190069054906101000a900460ff16600985815481101515610b2457fe5b90600052602060002090602091828204019190069054906101000a900460ff16600a86815481101515610b5357fe5b90600052602060002090602091828204019190069054906101000a900460ff1696509650965096509650965050909192939495565b81600280549050118015610c015750600582815481101515610ba657fe5b906000526020600020900160009054906101000a900473ffffffffffffffffffffffffffffffffffffffff1673ffffffffffffffffffffffffffffffffffffffff163373ffffffffffffffffffffffffffffffffffffffff16145b1515610c0c57600080fd5b80600283815481101515610c1c57fe5b9060005260206000209001819055505050565b610c37611863565b610c3f611877565b610c4761188b565b610c4f611863565b6001600260056004838054600181600116156101000203166002900480601f016020809104026020016040519081016040528092919081815260200182805460018160011615610100020316600290048015610cec5780601f10610cc157610100808354040283529160200191610cec565b820191906000526020600020905b815481529060010190602001808311610ccf57829003601f168201915b5050505050935082805480602002602001604051908101604052809291908181526020018280548015610d3e57602002820191906000526020600020905b815481526020019060010190808311610d2a575b5050505050925081805480602002602001604051908101604052809291908181526020018280548015610dc657602002820191906000526020600020905b8160009054906101000a900473ffffffffffffffffffffffffffffffffffffffff1673ffffffffffffffffffffffffffffffffffffffff1681526020019060010190808311610d7c575b50505050509150808054600181600116156101000203166002900480601f016020809104026020016040519081016040528092919081815260200182805460018160011615610100020316600290048015610e625780601f10610e3757610100808354040283529160200191610e62565b820191906000526020600020905b815481529060010190602001808311610e4557829003601f168201915b50505050509050935093509350935090919293565b80600280549050118015610ea55750600281815481101515610e9557fe5b9060005260206000209001543410155b1515610eb057600080fd5b600581815481101515610ebf57fe5b906000526020600020900160009054906101000a900473ffffffffffffffffffffffffffffffffffffffff1673ffffffffffffffffffffffffffffffffffffffff166108fc600283815481101515610f1357fe5b9060005260206000209001549081150290604051600060405180830381858888f193505050501515610f4457600080fd5b33600582815481101515610f5457fe5b906000526020600020900160006101000a81548173ffffffffffffffffffffffffffffffffffffffff021916908373ffffffffffffffffffffffffffffffffffffffff16021790555050565b6000610faa611863565b600080610fb5611863565b85600280549050111515610fc857600080fd5b85600087815481101515610fd857fe5b9060005260206000209001600288815481101515610ff257fe5b90600052602060002090015460058981548110151561100d57fe5b906000526020600020900160009054906101000a900473ffffffffffffffffffffffffffffffffffffffff1660038a81548110151561104857fe5b9060005260206000209001838054600181600116156101000203166002900480601f0160208091040260200160405190810160405280929190818152602001828054600181600116156101000203166002900480156110e85780601f106110bd576101008083540402835291602001916110e8565b820191906000526020600020905b8154815290600101906020018083116110cb57829003601f168201915b50505050509350808054600181600116156101000203166002900480601f0160208091040260200160405190810160405280929190818152602001828054600181600116156101000203166002900480156111845780601f1061115957610100808354040283529160200191611184565b820191906000526020600020905b81548152906001019060200180831161116757829003601f168201915b505050505090509450945094509450945091939590929450565b600080548060010182816111b2919061189f565b916000526020600020900160008a909190915090805190602001906111d89291906118cb565b50506112b460018054600181600116156101000203166002900480601f0160208091040260200160405190810160405280929190818152602001828054600181600116156101000203166002900480156112735780601f1061124857610100808354040283529160200191611273565b820191906000526020600020905b81548152906001019060200180831161125657829003601f168201915b5050505050896040805190810160405280600181526020017f7c000000000000000000000000000000000000000000000000000000000000008152506115e5565b600190805190602001906112c99291906118cb565b50600280548060010182816112de919061194b565b916000526020600020900160008990919091505550600580548060010182816113079190611977565b9160005260206000209001600033909190916101000a81548173ffffffffffffffffffffffffffffffffffffffff021916908373ffffffffffffffffffffffffffffffffffffffff160217905550506003805480600101828161136a919061189f565b9160005260206000209001600088909190915090805190602001906113909291906118cb565b505061146c60048054600181600116156101000203166002900480601f01602080910402602001604051908101604052809291908181526020018280546001816001161561010002031660029004801561142b5780601f106114005761010080835404028352916020019161142b565b820191906000526020600020905b81548152906001019060200180831161140e57829003601f168201915b5050505050896040805190810160405280600181526020017f7c000000000000000000000000000000000000000000000000000000000000008152506115e5565b600490805190602001906114819291906118cb565b506006805480600101828161149691906119a3565b916000526020600020906020918282040191900687909190916101000a81548160ff021916908360ff16021790555050600780548060010182816114da91906119dd565b916000526020600020906010918282040191900660020286909190916101000a81548161ffff021916908361ffff160217905550506008805480600101828161152391906119a3565b916000526020600020906020918282040191900685909190916101000a81548160ff021916908360ff160217905550506009805480600101828161156791906119a3565b916000526020600020906020918282040191900684909190916101000a81548160ff021916908360ff16021790555050600a80548060010182816115ab91906119a3565b916000526020600020906020918282040191900683909190916101000a81548160ff021916908360ff160217905550505050505050505050565b6115ed611863565b6115f5611a17565b6115fd611a17565b611605611863565b61160d611a17565b600080899550889450600185518751010160405180591061162b5750595b9080825280601f01601f19166020018201604052509350839250600091505b85518210156116fd57858281518110151561166157fe5b9060200101517f010000000000000000000000000000000000000000000000000000000000000090047f01000000000000000000000000000000000000000000000000000000000000000283828060010193508151811015156116c057fe5b9060200101907effffffffffffffffffffffffffffffffffffffffffffffffffffffffffffff1916908160001a905350818060010192505061164a565b87600081518110151561170c57fe5b9060200101517f010000000000000000000000000000000000000000000000000000000000000090047f010000000000000000000000000000000000000000000000000000000000000002838280600101935081518110151561176b57fe5b9060200101907effffffffffffffffffffffffffffffffffffffffffffffffffffffffffffff1916908160001a905350600091505b84518210156118535784828151811015156117b757fe5b9060200101517f010000000000000000000000000000000000000000000000000000000000000090047f010000000000000000000000000000000000000000000000000000000000000002838280600101935081518110151561181657fe5b9060200101907effffffffffffffffffffffffffffffffffffffffffffffffffffffffffffff1916908160001a90535081806001019250506117a0565b8296505050505050509392505050565b602060405190810160405280600081525090565b602060405190810160405280600081525090565b602060405190810160405280600081525090565b8154818355818115116118c6578183600052602060002091820191016118c59190611a2b565b5b505050565b828054600181600116156101000203166002900490600052602060002090601f016020900481019282601f1061190c57805160ff191683800117855561193a565b8280016001018555821561193a579182015b8281111561193957825182559160200191906001019061191e565b5b5090506119479190611a57565b5090565b815481835581811511611972578183600052602060002091820191016119719190611a57565b5b505050565b81548183558181151161199e5781836000526020600020918201910161199d9190611a57565b5b505050565b8154818355818115116119d857601f016020900481601f016020900483600052602060002091820191016119d79190611a57565b5b505050565b815481835581811511611a1257600f016010900481600f01601090048360005260206000209182019101611a119190611a57565b5b505050565b602060405190810160405280600081525090565b611a5491905b80821115611a505760008181611a479190611a7c565b50600101611a31565b5090565b90565b611a7991905b80821115611a75576000816000905550600101611a5d565b5090565b90565b50805460018160011615610100020316600290046000825580601f10611aa25750611ac1565b601f016020900490600052602060002090810190611ac09190611a57565b5b505600a165627a7a723058206cfd5e79db7890f901481c815f271bfb9b28bc33b3045a5108afc32ac4fb0a6a0029",
  "source": "pragma solidity ^0.4.18;\n\ncontract Diamonds {\n  \n    // separate arrays for each diamond field. Index is the id\n    string[] diamondNames;\n    string diamondNamesString;\n    uint[] diamondPrices; // in Wei\n    string[] diamondUrls;\n    string diamondUrlsString;\n    address[] diamondOwners;\n    uint8[] diamondShapes;\n    uint16[] diamondCarats;\n    uint8[] diamondGrades;\n    uint8[] diamondCuts;\n    uint8[] diamondColors;\n\n    address private owner;\n    \n    function Diamonds() public {\n        // constructor function\n        owner = msg.sender; // contract owner\n    }\n    \n    function createDiamond(string name, uint price, string url, uint8 shape, \n        uint16 carat, uint8 grade, uint8 cut, uint8 color) public \n    {\n        diamondNames.push(name);\n        diamondNamesString = concat(diamondNamesString, name, \"|\");\n        diamondPrices.push(price);\n        diamondOwners.push(msg.sender);\n        diamondUrls.push(url);\n        diamondUrlsString = concat(diamondUrlsString, name, \"|\");\n        diamondShapes.push(shape);\n        diamondCarats.push(carat);\n        diamondGrades.push(grade);\n        diamondCuts.push(cut);\n        diamondColors.push(color);\n    }\n    \n    function buy(uint id) payable public {\n        // id is index of diamond in the arrays\n        require(diamondPrices.length > id && \n            msg.value >= diamondPrices[id]);\n\n        diamondOwners[id].transfer(diamondPrices[id]);\n        diamondOwners[id] = msg.sender; // change owner\n    }\n\n    function updatePrice(uint id, uint price) public {\n        require(diamondPrices.length > id && \n            msg.sender == diamondOwners[id]);\n        \n        diamondPrices[id] = price;\n    }\n    \n    function getDiamond(uint id) view public \n        returns (uint, string, uint, address, string) \n    {\n        require(diamondPrices.length > id);\n        return (id, diamondNames[id], diamondPrices[id], diamondOwners[id],\n            diamondUrls[id]\n        );\n    }\n\n    function getDiamondDetails(uint id) view public \n        returns (uint, uint8, uint16, uint8, uint8, uint8)\n    {\n        return (id, diamondShapes[id], diamondCarats[id], diamondGrades[id],\n            diamondCuts[id], diamondColors[id]\n        );\n    }\n    \n    function getLastDiamond() view public \n        returns (uint, string, uint, address, string) \n    {\n        uint id = diamondPrices.length - 1;\n        return (id, diamondNames[id], diamondPrices[id], diamondOwners[id],\n            diamondUrls[id]\n        );\n    }\n    \n    function getLastDiamondDetails() view public \n        returns (uint, uint8, uint16, uint8, uint8, uint8)\n    {\n        uint id = diamondPrices.length - 1;\n        return (id, diamondShapes[id], diamondCarats[id], diamondGrades[id],\n            diamondCuts[id], diamondColors[id]);\n    }\n\n    function getAllDiamonds() view public \n        returns (string, uint[], address[], string) \n    {\n        return (diamondNamesString, diamondPrices, diamondOwners,\n            diamondUrlsString\n        );\n    }\n    \n    function kill() public {\n        // destroy contract and send all remaining funds to contract owner's address\n        require (msg.sender == owner);\n        selfdestruct(owner);\n    }\n    \n    function concat(string _base, string _value, string _separator) \n        pure \n        internal \n        returns (string) \n        {\n        bytes memory _baseBytes = bytes(_base);\n        bytes memory _valueBytes = bytes(_value);\n        \n        string memory _tmpValue = new string(_baseBytes.length + _valueBytes.length + 1);\n        bytes memory _newValue = bytes(_tmpValue);\n        \n        uint i;\n        uint j;\n        \n        for (i=0; i < _baseBytes.length; i++) {\n            _newValue[j++] = _baseBytes[i];\n        }\n        \n        _newValue[j++] = bytes(_separator)[0];\n        \n        for (i=0; i < _valueBytes.length; i++) {\n            _newValue[j++] = _valueBytes[i];\n        }\n        \n        return string(_newValue);\n    }\n}",
  "sourcePath": "/Users/cylinda/Documents/app_academy/noncense/contracts/Diamonds.sol",
  "compiler": {
    "name": "solc",
    "version": "0.4.18+commit.9cf6e910.Emscripten.clang"
  },
  "schemaVersion": "1.0.1",
  "updatedAt": "2017-12-16T01:06:11.025Z"
}