{
  "contractName": "Diamonds",
  "abi": [
    {
      "constant": true,
      "inputs": [
        {
          "name": "",
          "type": "uint256"
        }
      ],
      "name": "allDiamonds",
      "outputs": [
        {
          "name": "id",
          "type": "uint256"
        },
        {
          "name": "price",
          "type": "uint256"
        },
        {
          "name": "ownerAddr",
          "type": "address"
        }
      ],
      "payable": false,
      "stateMutability": "view",
      "type": "function"
    },
    {
      "constant": false,
      "inputs": [],
      "name": "kill",
      "outputs": [],
      "payable": false,
      "stateMutability": "nonpayable",
      "type": "function"
    },
    {
      "constant": false,
      "inputs": [
        {
          "name": "price",
          "type": "uint256"
        }
      ],
      "name": "createDiamond",
      "outputs": [
        {
          "name": "",
          "type": "uint256"
        }
      ],
      "payable": false,
      "stateMutability": "nonpayable",
      "type": "function"
    },
    {
      "constant": false,
      "inputs": [
        {
          "name": "diamondId",
          "type": "uint256"
        }
      ],
      "name": "buy",
      "outputs": [
        {
          "name": "",
          "type": "uint256"
        }
      ],
      "payable": true,
      "stateMutability": "payable",
      "type": "function"
    },
    {
      "inputs": [
        {
          "name": "diamondId",
          "type": "uint256"
        }
      ],
      "payable": false,
      "stateMutability": "nonpayable",
      "type": "function",
      "constant": false,
      "name": "testDiamonds",
      "outputs": [
        {
          "name": "",
          "type": "bytes32"
        }
      ]
    },
    {
      "anonymous": false,
      "inputs": [
        {
          "indexed": false,
          "name": "",
          "type": "uint256"
        },
        {
          "indexed": false,
          "name": "",
          "type": "uint256"
        },
        {
          "indexed": false,
          "name": "",
          "type": "address"
        }
      ],
      "name": "DiamondLogger",
      "type": "constructor",
      "payable": false,
      "stateMutability": "nonpayable"
    },
    {
      "anonymous": false,
      "inputs": [
        {
          "indexed": false,
          "name": "",
          "type": "uint256"
        },
        {
          "indexed": false,
          "name": "",
          "type": "uint256"
        },
        {
          "indexed": false,
          "name": "",
          "type": "address"
        }
      ],
      "name": "DiamondLogger",
      "type": "event"
    }
  ],
  "bytecode": "0x6060604052341561000f57600080fd5b33600160006101000a81548173ffffffffffffffffffffffffffffffffffffffff021916908373ffffffffffffffffffffffffffffffffffffffff1602179055506106358061005f6000396000f30060606040526004361061006d576000357c0100000000000000000000000000000000000000000000000000000000900463ffffffff1680631e570dd41461007257806341c0e1b5146100e3578063b5a32636146100f8578063d96a094a1461012f578063e945759314610147575b600080fd5b341561007d57600080fd5b6100936004808035906020019091905050610178565b604051808481526020018381526020018273ffffffffffffffffffffffffffffffffffffffff1673ffffffffffffffffffffffffffffffffffffffff168152602001935050505060405180910390f35b34156100ee57600080fd5b6100f66101d1565b005b341561010357600080fd5b6101196004808035906020019091905050610264565b6040518082815260200191505060405180910390f35b6101456004808035906020019091905050610424565b005b341561015257600080fd5b61015a610574565b60405180826000191660001916815260200191505060405180910390f35b60008181548110151561018757fe5b90600052602060002090600302016000915090508060000154908060010154908060020160009054906101000a900473ffffffffffffffffffffffffffffffffffffffff16905083565b600160009054906101000a900473ffffffffffffffffffffffffffffffffffffffff1673ffffffffffffffffffffffffffffffffffffffff163373ffffffffffffffffffffffffffffffffffffffff16141561026257600160009054906101000a900473ffffffffffffffffffffffffffffffffffffffff1673ffffffffffffffffffffffffffffffffffffffff16ff5b565b6000806000805490509050600080548060010182816102839190610581565b916000526020600020906003020160006060604051908101604052808581526020018781526020013373ffffffffffffffffffffffffffffffffffffffff168152509091909150600082015181600001556020820151816001015560408201518160020160006101000a81548173ffffffffffffffffffffffffffffffffffffffff021916908373ffffffffffffffffffffffffffffffffffffffff1602179055505050507f68fbd1057e8027d898c27fce86b80a981acecc1fedceaab794402d6d0a02111a60008281548110151561035857fe5b90600052602060002090600302016000015460008381548110151561037957fe5b90600052602060002090600302016001015460008481548110151561039a57fe5b906000526020600020906003020160020160009054906101000a900473ffffffffffffffffffffffffffffffffffffffff16604051808481526020018381526020018273ffffffffffffffffffffffffffffffffffffffff1673ffffffffffffffffffffffffffffffffffffffff168152602001935050505060405180910390a180915050919050565b806000805490501180156104625750670de0b6b3a764000060008281548110151561044b57fe5b906000526020600020906003020160010154023410155b156105715760008181548110151561047657fe5b906000526020600020906003020160020160009054906101000a900473ffffffffffffffffffffffffffffffffffffffff1673ffffffffffffffffffffffffffffffffffffffff166108fc670de0b6b3a76400006000848154811015156104d957fe5b906000526020600020906003020160010154029081150290604051600060405180830381858888f19350505050151561051157600080fd5b3360008281548110151561052157fe5b906000526020600020906003020160020160006101000a81548173ffffffffffffffffffffffffffffffffffffffff021916908373ffffffffffffffffffffffffffffffffffffffff1602179055505b50565b6000610456600102905090565b8154818355818115116105ae576003028160030283600052602060002091820191016105ad91906105b3565b5b505050565b61060691905b808211156106025760008082016000905560018201600090556002820160006101000a81549073ffffffffffffffffffffffffffffffffffffffff0219169055506003016105b9565b5090565b905600a165627a7a723058205fe970b65117f4885043e1ffdbb67664fb6fb026f8e1079821b910a3c3c105110029",
  "source": "pragma solidity ^0.4.0;\n\ncontract Diamonds {\n    struct Diamond {\n        uint id;\n        uint price; // in ether (should convert to Wei)\n        address ownerAddr;\n    }\n    \n    Diamond[] public allDiamonds; // array of Diamond structs\n    address owner;\n    \n    event DiamondLogger(uint, uint, address);\n    \n    function Diamonds() public {\n        owner = msg.sender;\n    }\n\n    function testDiamonds() public returns (bytes32) {\n        return 0x456; \n    }\n    \n    function createDiamond(uint price) public returns (uint) {\n        uint diamondId = allDiamonds.length;\n        allDiamonds.push(Diamond(diamondId, price, msg.sender));\n        DiamondLogger(allDiamonds[diamondId].id, allDiamonds[diamondId].price, allDiamonds[diamondId].ownerAddr);\n        return diamondId;\n    }\n    \n    function buy(uint diamondId) payable public {\n        //find diamond (diamondId should be index of diamond in allDiamonds)\n        if (allDiamonds.length > diamondId && \n            msg.value >= allDiamonds[diamondId].price * 1e18) {\n            allDiamonds[diamondId].ownerAddr.transfer(allDiamonds[diamondId].price * 1e18);\n            allDiamonds[diamondId].ownerAddr = msg.sender;\n        }\n    }\n    \n    function kill() public {\n        if (msg.sender == owner) \n          selfdestruct(owner);\n    }\n}",
  "sourcePath": "/Users/cylinda/Documents/app_academy/noncense/contracts/Diamonds.sol",
  "compiler": {
    "name": "solc",
    "version": "0.4.18+commit.9cf6e910.Emscripten.clang"
  },
  "schemaVersion": "1.0.1",
  "updatedAt": "2017-12-13T01:53:28.584Z"
}