{
  "contractName": "Diamonds",
  "abi": [
    {
      "constant": true,
      "inputs": [
        {
          "name": "id",
          "type": "uint256"
        }
      ],
      "name": "getDiamondDetails",
      "outputs": [
        {
          "name": "",
          "type": "uint256"
        },
        {
          "name": "",
          "type": "uint8"
        },
        {
          "name": "",
          "type": "uint16"
        },
        {
          "name": "",
          "type": "uint8"
        },
        {
          "name": "",
          "type": "uint8"
        },
        {
          "name": "",
          "type": "uint8"
        }
      ],
      "payable": false,
      "stateMutability": "view",
      "type": "function"
    },
    {
      "constant": true,
      "inputs": [],
      "name": "getLastDiamond",
      "outputs": [
        {
          "name": "",
          "type": "uint256"
        },
        {
          "name": "",
          "type": "string"
        },
        {
          "name": "",
          "type": "uint256"
        },
        {
          "name": "",
          "type": "address"
        },
        {
          "name": "",
          "type": "string"
        }
      ],
      "payable": false,
      "stateMutability": "view",
      "type": "function"
    },
    {
      "constant": false,
      "inputs": [],
      "name": "kill",
      "outputs": [],
      "payable": false,
      "stateMutability": "nonpayable",
      "type": "function"
    },
    {
      "constant": false,
      "inputs": [
        {
          "name": "name",
          "type": "string"
        },
        {
          "name": "price",
          "type": "uint256"
        },
        {
          "name": "url",
          "type": "string"
        },
        {
          "name": "shape",
          "type": "uint8"
        },
        {
          "name": "carat",
          "type": "uint16"
        },
        {
          "name": "clarity",
          "type": "uint8"
        },
        {
          "name": "cut",
          "type": "uint8"
        },
        {
          "name": "color",
          "type": "uint8"
        },
        {
          "name": "owner",
          "type": "string"
        }
      ],
      "name": "createDiamond",
      "outputs": [],
      "payable": false,
      "stateMutability": "nonpayable",
      "type": "function"
    },
    {
      "constant": true,
      "inputs": [],
      "name": "getLastDiamondDetails",
      "outputs": [
        {
          "name": "",
          "type": "uint256"
        },
        {
          "name": "",
          "type": "uint8"
        },
        {
          "name": "",
          "type": "uint16"
        },
        {
          "name": "",
          "type": "uint8"
        },
        {
          "name": "",
          "type": "uint8"
        },
        {
          "name": "",
          "type": "uint8"
        }
      ],
      "payable": false,
      "stateMutability": "view",
      "type": "function"
    },
    {
      "constant": false,
      "inputs": [
        {
          "name": "id",
          "type": "uint256"
        },
        {
          "name": "price",
          "type": "uint256"
        }
      ],
      "name": "updatePrice",
      "outputs": [],
      "payable": false,
      "stateMutability": "nonpayable",
      "type": "function"
    },
    {
      "constant": true,
      "inputs": [],
      "name": "getOwnDiamonds",
      "outputs": [
        {
          "name": "",
          "type": "uint256[]"
        },
        {
          "name": "",
          "type": "string"
        },
        {
          "name": "",
          "type": "uint256[]"
        },
        {
          "name": "",
          "type": "string"
        }
      ],
      "payable": false,
      "stateMutability": "view",
      "type": "function"
    },
    {
      "constant": true,
      "inputs": [],
      "name": "getAllDiamonds",
      "outputs": [
        {
          "name": "",
          "type": "string"
        },
        {
          "name": "",
          "type": "uint256[]"
        },
        {
          "name": "",
          "type": "address[]"
        },
        {
          "name": "",
          "type": "string"
        },
        {
          "name": "",
          "type": "address[]"
        },
        {
          "name": "",
          "type": "string"
        }
      ],
      "payable": false,
      "stateMutability": "view",
      "type": "function"
    },
    {
      "constant": false,
      "inputs": [
        {
          "name": "id",
          "type": "uint256"
        }
      ],
      "name": "buy",
      "outputs": [],
      "payable": true,
      "stateMutability": "payable",
      "type": "function"
    },
    {
      "constant": true,
      "inputs": [
        {
          "name": "id",
          "type": "uint256"
        }
      ],
      "name": "getDiamond",
      "outputs": [
        {
          "name": "",
          "type": "uint256"
        },
        {
          "name": "",
          "type": "string"
        },
        {
          "name": "",
          "type": "uint256"
        },
        {
          "name": "",
          "type": "address"
        },
        {
          "name": "",
          "type": "string"
        },
        {
          "name": "",
          "type": "string"
        }
      ],
      "payable": false,
      "stateMutability": "view",
      "type": "function"
    },
    {
      "inputs": [],
      "payable": false,
      "stateMutability": "nonpayable",
      "type": "constructor"
    }
  ],
  "bytecode": "0x6060604052341561000f57600080fd5b33600d60006101000a81548173ffffffffffffffffffffffffffffffffffffffff021916908373ffffffffffffffffffffffffffffffffffffffff1602179055506129238061005f6000396000f3006060604052600436106100a4576000357c0100000000000000000000000000000000000000000000000000000000900463ffffffff1680630e065ccd146100a9578063287bf6d51461012357806341c0e1b51461025e5780634b332f8b1461027357806362447dbe1461039c57806382367b2d1461040857806394244ea114610434578063a9856cf9146105be578063d96a094a146107fc578063e3ed14db14610814575b600080fd5b34156100b457600080fd5b6100ca60048080359060200190919050506109c9565b604051808781526020018660ff1660ff1681526020018561ffff1661ffff1681526020018460ff1660ff1681526020018360ff1660ff1681526020018260ff1660ff168152602001965050505050505060405180910390f35b341561012e57600080fd5b610136610ad7565b60405180868152602001806020018581526020018473ffffffffffffffffffffffffffffffffffffffff1673ffffffffffffffffffffffffffffffffffffffff16815260200180602001838103835287818151815260200191508051906020019080838360005b838110156101b857808201518184015260208101905061019d565b50505050905090810190601f1680156101e55780820380516001836020036101000a031916815260200191505b50838103825284818151815260200191508051906020019080838360005b8381101561021e578082015181840152602081019050610203565b50505050905090810190601f16801561024b5780820380516001836020036101000a031916815260200191505b5097505050505050505060405180910390f35b341561026957600080fd5b610271610cce565b005b341561027e57600080fd5b61039a600480803590602001908201803590602001908080601f0160208091040260200160405190810160405280939291908181526020018383808284378201915050505050509190803590602001909190803590602001908201803590602001908080601f0160208091040260200160405190810160405280939291908181526020018383808284378201915050505050509190803560ff1690602001909190803561ffff1690602001909190803560ff1690602001909190803560ff1690602001909190803560ff1690602001909190803590602001908201803590602001908080601f01602080910402602001604051908101604052809392919081815260200183838082843782019150505050505091905050610d65565b005b34156103a757600080fd5b6103af61141b565b604051808781526020018660ff1660ff1681526020018561ffff1661ffff1681526020018460ff1660ff1681526020018360ff1660ff1681526020018260ff1660ff168152602001965050505050505060405180910390f35b341561041357600080fd5b6104326004808035906020019091908035906020019091905050611536565b005b341561043f57600080fd5b6104476115dd565b6040518080602001806020018060200180602001858103855289818151815260200191508051906020019060200280838360005b8381101561049657808201518184015260208101905061047b565b50505050905001858103845288818151815260200191508051906020019080838360005b838110156104d55780820151818401526020810190506104ba565b50505050905090810190601f1680156105025780820380516001836020036101000a031916815260200191505b50858103835287818151815260200191508051906020019060200280838360005b8381101561053e578082015181840152602081019050610523565b50505050905001858103825286818151815260200191508051906020019080838360005b8381101561057d578082015181840152602081019050610562565b50505050905090810190601f1680156105aa5780820380516001836020036101000a031916815260200191505b509850505050505050505060405180910390f35b34156105c957600080fd5b6105d1611967565b6040518080602001806020018060200180602001806020018060200187810387528d818151815260200191508051906020019080838360005b8381101561062557808201518184015260208101905061060a565b50505050905090810190601f1680156106525780820380516001836020036101000a031916815260200191505b5087810386528c818151815260200191508051906020019060200280838360005b8381101561068e578082015181840152602081019050610673565b5050505090500187810385528b818151815260200191508051906020019060200280838360005b838110156106d05780820151818401526020810190506106b5565b5050505090500187810384528a818151815260200191508051906020019080838360005b8381101561070f5780820151818401526020810190506106f4565b50505050905090810190601f16801561073c5780820380516001836020036101000a031916815260200191505b50878103835289818151815260200191508051906020019060200280838360005b8381101561077857808201518184015260208101905061075d565b50505050905001878103825288818151815260200191508051906020019080838360005b838110156107b757808201518184015260208101905061079c565b50505050905090810190601f1680156107e45780820380516001836020036101000a031916815260200191505b509c5050505050505050505050505060405180910390f35b6108126004808035906020019091905050611ced565b005b341561081f57600080fd5b61083560048080359060200190919050506120cf565b60405180878152602001806020018681526020018573ffffffffffffffffffffffffffffffffffffffff1673ffffffffffffffffffffffffffffffffffffffff1681526020018060200180602001848103845289818151815260200191508051906020019080838360005b838110156108bb5780820151818401526020810190506108a0565b50505050905090810190601f1680156108e85780820380516001836020036101000a031916815260200191505b50848103835286818151815260200191508051906020019080838360005b83811015610921578082015181840152602081019050610906565b50505050905090810190601f16801561094e5780820380516001836020036101000a031916815260200191505b50848103825285818151815260200191508051906020019080838360005b8381101561098757808201518184015260208101905061096c565b50505050905090810190601f1680156109b45780820380516001836020036101000a031916815260200191505b50995050505050505050505060405180910390f35b600080600080600080866006888154811015156109e257fe5b90600052602060002090602091828204019190069054906101000a900460ff16600789815481101515610a1157fe5b90600052602060002090601091828204019190066002029054906101000a900461ffff1660088a815481101515610a4457fe5b90600052602060002090602091828204019190069054906101000a900460ff1660098b815481101515610a7357fe5b90600052602060002090602091828204019190069054906101000a900460ff16600a8c815481101515610aa257fe5b90600052602060002090602091828204019190069054906101000a900460ff1695509550955095509550955091939550919395565b6000610ae161266a565b600080610aec61266a565b6000600160028054905003905080600082815481101515610b0957fe5b9060005260206000209001600283815481101515610b2357fe5b906000526020600020900154600584815481101515610b3e57fe5b906000526020600020900160009054906101000a900473ffffffffffffffffffffffffffffffffffffffff16600385815481101515610b7957fe5b9060005260206000209001838054600181600116156101000203166002900480601f016020809104026020016040519081016040528092919081815260200182805460018160011615610100020316600290048015610c195780601f10610bee57610100808354040283529160200191610c19565b820191906000526020600020905b815481529060010190602001808311610bfc57829003601f168201915b50505050509350808054600181600116156101000203166002900480601f016020809104026020016040519081016040528092919081815260200182805460018160011615610100020316600290048015610cb55780601f10610c8a57610100808354040283529160200191610cb5565b820191906000526020600020905b815481529060010190602001808311610c9857829003601f168201915b5050505050905095509550955095509550509091929394565b600d60009054906101000a900473ffffffffffffffffffffffffffffffffffffffff1673ffffffffffffffffffffffffffffffffffffffff163373ffffffffffffffffffffffffffffffffffffffff16141515610d2a57600080fd5b600d60009054906101000a900473ffffffffffffffffffffffffffffffffffffffff1673ffffffffffffffffffffffffffffffffffffffff16ff5b600e60003373ffffffffffffffffffffffffffffffffffffffff1673ffffffffffffffffffffffffffffffffffffffff1681526020019081526020016000208054806001018281610db6919061267e565b916000526020600020900160008080549050909190915055506000600f60003373ffffffffffffffffffffffffffffffffffffffff1673ffffffffffffffffffffffffffffffffffffffff1681526020019081526020016000208054600181600116156101000203166002900490501415610fd35780600f60003373ffffffffffffffffffffffffffffffffffffffff1673ffffffffffffffffffffffffffffffffffffffff1681526020019081526020016000209080519060200190610e7e9291906126aa565b50600b8054806001018281610e93919061272a565b9160005260206000209001600033909190916101000a81548173ffffffffffffffffffffffffffffffffffffffff021916908373ffffffffffffffffffffffffffffffffffffffff16021790555050610fbc600c8054600181600116156101000203166002900480601f016020809104026020016040519081016040528092919081815260200182805460018160011615610100020316600290048015610f7b5780601f10610f5057610100808354040283529160200191610f7b565b820191906000526020600020905b815481529060010190602001808311610f5e57829003601f168201915b5050505050826040805190810160405280600181526020017f7c000000000000000000000000000000000000000000000000000000000000008152506123ec565b600c9080519060200190610fd19291906126aa565b505b60008054806001018281610fe79190612756565b916000526020600020900160008b9091909150908051906020019061100d9291906126aa565b50506110e960018054600181600116156101000203166002900480601f0160208091040260200160405190810160405280929190818152602001828054600181600116156101000203166002900480156110a85780601f1061107d576101008083540402835291602001916110a8565b820191906000526020600020905b81548152906001019060200180831161108b57829003601f168201915b50505050508a6040805190810160405280600181526020017f7c000000000000000000000000000000000000000000000000000000000000008152506123ec565b600190805190602001906110fe9291906126aa565b5060028054806001018281611113919061267e565b916000526020600020900160008a909190915055506005805480600101828161113c919061272a565b9160005260206000209001600033909190916101000a81548173ffffffffffffffffffffffffffffffffffffffff021916908373ffffffffffffffffffffffffffffffffffffffff160217905550506003805480600101828161119f9190612756565b9160005260206000209001600089909190915090805190602001906111c59291906126aa565b50506112a160048054600181600116156101000203166002900480601f0160208091040260200160405190810160405280929190818152602001828054600181600116156101000203166002900480156112605780601f1061123557610100808354040283529160200191611260565b820191906000526020600020905b81548152906001019060200180831161124357829003601f168201915b5050505050886040805190810160405280600181526020017f7c000000000000000000000000000000000000000000000000000000000000008152506123ec565b600490805190602001906112b69291906126aa565b50600680548060010182816112cb9190612782565b916000526020600020906020918282040191900688909190916101000a81548160ff021916908360ff160217905550506007805480600101828161130f91906127bc565b916000526020600020906010918282040191900660020287909190916101000a81548161ffff021916908361ffff16021790555050600880548060010182816113589190612782565b916000526020600020906020918282040191900686909190916101000a81548160ff021916908360ff160217905550506009805480600101828161139c9190612782565b916000526020600020906020918282040191900685909190916101000a81548160ff021916908360ff16021790555050600a80548060010182816113e09190612782565b916000526020600020906020918282040191900684909190916101000a81548160ff021916908360ff16021790555050505050505050505050565b600080600080600080600060016002805490500390508060068281548110151561144157fe5b90600052602060002090602091828204019190069054906101000a900460ff1660078381548110151561147057fe5b90600052602060002090601091828204019190066002029054906101000a900461ffff166008848154811015156114a357fe5b90600052602060002090602091828204019190069054906101000a900460ff166009858154811015156114d257fe5b90600052602060002090602091828204019190069054906101000a900460ff16600a8681548110151561150157fe5b90600052602060002090602091828204019190069054906101000a900460ff1696509650965096509650965050909192939495565b816002805490501180156115af575060058281548110151561155457fe5b906000526020600020900160009054906101000a900473ffffffffffffffffffffffffffffffffffffffff1673ffffffffffffffffffffffffffffffffffffffff163373ffffffffffffffffffffffffffffffffffffffff16145b15156115ba57600080fd5b806002838154811015156115ca57fe5b9060005260206000209001819055505050565b6115e56127f6565b6115ed61266a565b6115f56127f6565b6115fd61266a565b6116056127f6565b61160d6127f6565b61161561266a565b61161d61266a565b6000600e60003373ffffffffffffffffffffffffffffffffffffffff1673ffffffffffffffffffffffffffffffffffffffff1681526020019081526020016000208054806020026020016040519081016040528092919081815260200182805480156116a857602002820191906000526020600020905b815481526020019060010190808311611694575b5050505050945084516040518059106116be5750595b90808252806020026020018201604052509350600090505b845181101561195057600285828151811015156116ef57fe5b9060200190602002015181548110151561170557fe5b906000526020600020900154848281518110151561171f57fe5b9060200190602002018181525050611836836000878481518110151561174157fe5b9060200190602002015181548110151561175757fe5b90600052602060002090018054600181600116156101000203166002900480601f0160208091040260200160405190810160405280929190818152602001828054600181600116156101000203166002900480156117f65780601f106117cb576101008083540402835291602001916117f6565b820191906000526020600020905b8154815290600101906020018083116117d957829003601f168201915b50505050506040805190810160405280600181526020017f7c000000000000000000000000000000000000000000000000000000000000008152506123ec565b9250611941826003878481518110151561184c57fe5b9060200190602002015181548110151561186257fe5b90600052602060002090018054600181600116156101000203166002900480601f0160208091040260200160405190810160405280929190818152602001828054600181600116156101000203166002900480156119015780601f106118d657610100808354040283529160200191611901565b820191906000526020600020905b8154815290600101906020018083116118e457829003601f168201915b50505050506040805190810160405280600181526020017f7c000000000000000000000000000000000000000000000000000000000000008152506123ec565b915080806001019150506116d6565b848385849850985098509850505050505090919293565b61196f61266a565b6119776127f6565b61197f61280a565b61198761266a565b61198f61280a565b61199761266a565b6001600260056004600b600c858054600181600116156101000203166002900480601f016020809104026020016040519081016040528092919081815260200182805460018160011615610100020316600290048015611a385780601f10611a0d57610100808354040283529160200191611a38565b820191906000526020600020905b815481529060010190602001808311611a1b57829003601f168201915b5050505050955084805480602002602001604051908101604052809291908181526020018280548015611a8a57602002820191906000526020600020905b815481526020019060010190808311611a76575b5050505050945083805480602002602001604051908101604052809291908181526020018280548015611b1257602002820191906000526020600020905b8160009054906101000a900473ffffffffffffffffffffffffffffffffffffffff1673ffffffffffffffffffffffffffffffffffffffff1681526020019060010190808311611ac8575b50505050509350828054600181600116156101000203166002900480601f016020809104026020016040519081016040528092919081815260200182805460018160011615610100020316600290048015611bae5780601f10611b8357610100808354040283529160200191611bae565b820191906000526020600020905b815481529060010190602001808311611b9157829003601f168201915b5050505050925081805480602002602001604051908101604052809291908181526020018280548015611c3657602002820191906000526020600020905b8160009054906101000a900473ffffffffffffffffffffffffffffffffffffffff1673ffffffffffffffffffffffffffffffffffffffff1681526020019060010190808311611bec575b50505050509150808054600181600116156101000203166002900480601f016020809104026020016040519081016040528092919081815260200182805460018160011615610100020316600290048015611cd25780601f10611ca757610100808354040283529160200191611cd2565b820191906000526020600020905b815481529060010190602001808311611cb557829003601f168201915b50505050509050955095509550955095509550909192939495565b611cf56127f6565b600082600280549050118015611d255750600283815481101515611d1557fe5b9060005260206000209001543410155b1515611d3057600080fd5b600e6000600585815481101515611d4357fe5b906000526020600020900160009054906101000a900473ffffffffffffffffffffffffffffffffffffffff1673ffffffffffffffffffffffffffffffffffffffff1673ffffffffffffffffffffffffffffffffffffffff168152602001908152602001600020805480602002602001604051908101604052809291908181526020018280548015611df357602002820191906000526020600020905b815481526020019060010190808311611ddf575b50505050509150600090505b8151811015611eea57828282815181101515611e1757fe5b906020019060200201511415611edd57816001835103815181101515611e3957fe5b90602001906020020151600e6000600586815481101515611e5657fe5b906000526020600020900160009054906101000a900473ffffffffffffffffffffffffffffffffffffffff1673ffffffffffffffffffffffffffffffffffffffff1673ffffffffffffffffffffffffffffffffffffffff16815260200190815260200160002082815481101515611ec957fe5b906000526020600020900181905550611eea565b8080600101915050611dff565b600e6000600585815481101515611efd57fe5b906000526020600020900160009054906101000a900473ffffffffffffffffffffffffffffffffffffffff1673ffffffffffffffffffffffffffffffffffffffff1673ffffffffffffffffffffffffffffffffffffffff168152602001908152602001600020805480919060019003611f76919061281e565b50600583815481101515611f8657fe5b906000526020600020900160009054906101000a900473ffffffffffffffffffffffffffffffffffffffff1673ffffffffffffffffffffffffffffffffffffffff166108fc600285815481101515611fda57fe5b9060005260206000209001549081150290604051600060405180830381858888f19350505050151561200b57600080fd5b3360058481548110151561201b57fe5b906000526020600020900160006101000a81548173ffffffffffffffffffffffffffffffffffffffff021916908373ffffffffffffffffffffffffffffffffffffffff160217905550600e60003373ffffffffffffffffffffffffffffffffffffffff1673ffffffffffffffffffffffffffffffffffffffff16815260200190815260200160002080548060010182816120b5919061267e565b916000526020600020900160008590919091505550505050565b60006120d961266a565b6000806120e461266a565b6120ec61266a565b866002805490501115156120ff57600080fd5b8660008881548110151561210f57fe5b906000526020600020900160028981548110151561212957fe5b90600052602060002090015460058a81548110151561214457fe5b906000526020600020900160009054906101000a900473ffffffffffffffffffffffffffffffffffffffff1660038b81548110151561217f57fe5b9060005260206000209001600f600060058e81548110151561219d57fe5b906000526020600020900160009054906101000a900473ffffffffffffffffffffffffffffffffffffffff1673ffffffffffffffffffffffffffffffffffffffff1673ffffffffffffffffffffffffffffffffffffffff168152602001908152602001600020848054600181600116156101000203166002900480601f0160208091040260200160405190810160405280929190818152602001828054600181600116156101000203166002900480156122985780601f1061226d57610100808354040283529160200191612298565b820191906000526020600020905b81548152906001019060200180831161227b57829003601f168201915b50505050509450818054600181600116156101000203166002900480601f0160208091040260200160405190810160405280929190818152602001828054600181600116156101000203166002900480156123345780601f1061230957610100808354040283529160200191612334565b820191906000526020600020905b81548152906001019060200180831161231757829003601f168201915b50505050509150808054600181600116156101000203166002900480601f0160208091040260200160405190810160405280929190818152602001828054600181600116156101000203166002900480156123d05780601f106123a5576101008083540402835291602001916123d0565b820191906000526020600020905b8154815290600101906020018083116123b357829003601f168201915b5050505050905095509550955095509550955091939550919395565b6123f461266a565b6123fc61284a565b61240461284a565b61240c61266a565b61241461284a565b60008089955088945060018551875101016040518059106124325750595b9080825280601f01601f19166020018201604052509350839250600091505b855182101561250457858281518110151561246857fe5b9060200101517f010000000000000000000000000000000000000000000000000000000000000090047f01000000000000000000000000000000000000000000000000000000000000000283828060010193508151811015156124c757fe5b9060200101907effffffffffffffffffffffffffffffffffffffffffffffffffffffffffffff1916908160001a9053508180600101925050612451565b87600081518110151561251357fe5b9060200101517f010000000000000000000000000000000000000000000000000000000000000090047f010000000000000000000000000000000000000000000000000000000000000002838280600101935081518110151561257257fe5b9060200101907effffffffffffffffffffffffffffffffffffffffffffffffffffffffffffff1916908160001a905350600091505b845182101561265a5784828151811015156125be57fe5b9060200101517f010000000000000000000000000000000000000000000000000000000000000090047f010000000000000000000000000000000000000000000000000000000000000002838280600101935081518110151561261d57fe5b9060200101907effffffffffffffffffffffffffffffffffffffffffffffffffffffffffffff1916908160001a90535081806001019250506125a7565b8296505050505050509392505050565b602060405190810160405280600081525090565b8154818355818115116126a5578183600052602060002091820191016126a4919061285e565b5b505050565b828054600181600116156101000203166002900490600052602060002090601f016020900481019282601f106126eb57805160ff1916838001178555612719565b82800160010185558215612719579182015b828111156127185782518255916020019190600101906126fd565b5b509050612726919061285e565b5090565b81548183558181151161275157818360005260206000209182019101612750919061285e565b5b505050565b81548183558181151161277d5781836000526020600020918201910161277c9190612883565b5b505050565b8154818355818115116127b757601f016020900481601f016020900483600052602060002091820191016127b6919061285e565b5b505050565b8154818355818115116127f157600f016010900481600f016010900483600052602060002091820191016127f0919061285e565b5b505050565b602060405190810160405280600081525090565b602060405190810160405280600081525090565b81548183558181151161284557818360005260206000209182019101612844919061285e565b5b505050565b602060405190810160405280600081525090565b61288091905b8082111561287c576000816000905550600101612864565b5090565b90565b6128ac91905b808211156128a8576000818161289f91906128af565b50600101612889565b5090565b90565b50805460018160011615610100020316600290046000825580601f106128d557506128f4565b601f0160209004906000526020600020908101906128f3919061285e565b5b505600a165627a7a723058207d6f84e92e8efaf275187a773791bf0bfe3adce1bcd2b99a811b9f6c5cfed3260029",
  "source": "pragma solidity ^0.4.18;\n\ncontract Diamonds {\n  \n    // separate arrays for each diamond field. Index is the id\n    string[] diamondNames;\n    string diamondNamesString;\n    uint[] diamondPrices; // in Wei\n    string[] diamondUrls;\n    string diamondUrlsString;\n    address[] diamondOwners;\n    uint8[] diamondShapes;\n    uint16[] diamondCarats;\n    uint8[] diamondClaritys;\n    uint8[] diamondCuts;\n    uint8[] diamondColors;\n    address[] uniqueOwnerAddr;\n    string uniqueOwnerNames;\n\n    address contractOwner;\n    \n    mapping(address => uint[]) ownerDiamondIds;\n    mapping(address => string) ownerNames;\n    \n    function Diamonds() public {\n        // constructor function\n        contractOwner = msg.sender;\n    }\n    \n    function createDiamond(string name, uint price, string url, uint8 shape, \n        uint16 carat, uint8 clarity, uint8 cut, uint8 color, string owner) public \n    {\n        ownerDiamondIds[msg.sender].push(diamondNames.length);\n        if (bytes(ownerNames[msg.sender]).length == 0) {\n          ownerNames[msg.sender] = owner;\n          uniqueOwnerAddr.push(msg.sender);\n          uniqueOwnerNames = concat(uniqueOwnerNames, owner, \"|\");\n        }\n        diamondNames.push(name);\n        diamondNamesString = concat(diamondNamesString, name, \"|\");\n        diamondPrices.push(price);\n        diamondOwners.push(msg.sender);\n        diamondUrls.push(url);\n        diamondUrlsString = concat(diamondUrlsString, url, \"|\");\n        diamondShapes.push(shape);\n        diamondCarats.push(carat);\n        diamondClaritys.push(clarity);\n        diamondCuts.push(cut);\n        diamondColors.push(color);\n    }\n    \n    function buy(uint id) payable public {\n        // check for valid id and sufficient funds sent\n        require(diamondPrices.length > id && \n            msg.value >= diamondPrices[id]);\n        \n        // remove id from previous owner's array of diamond ids\n        uint[] memory ids = ownerDiamondIds[diamondOwners[id]];\n        for (uint i = 0; i < ids.length; i++) {\n            if (ids[i] == id) {\n                // move last id value to index of id\n                ownerDiamondIds[diamondOwners[id]][i] = ids[ids.length - 1];\n                break;\n            }\n        }\n        \n        // shorten previous owner's array of diamond ids by 1\n        ownerDiamondIds[diamondOwners[id]].length --;\n        \n         // transfer money to previous owner\n        diamondOwners[id].transfer(diamondPrices[id]);\n        \n        // change ownership\n        diamondOwners[id] = msg.sender;\n        ownerDiamondIds[msg.sender].push(id);\n    }\n\n    function updatePrice(uint id, uint price) public {\n        require(diamondPrices.length > id && \n            msg.sender == diamondOwners[id]);\n        \n        diamondPrices[id] = price;\n    }\n\n    function getAllDiamonds() view public \n        returns (string, uint[], address[], string, address[], string) \n    {\n        return (diamondNamesString, diamondPrices, diamondOwners,\n            diamondUrlsString, uniqueOwnerAddr, uniqueOwnerNames\n        );\n    }\n\n    function getOwnDiamonds() view public\n        returns (uint[], string, uint[], string) \n    {   \n        uint[] memory ids = ownerDiamondIds[msg.sender];\n        uint[] memory prices = new uint[](ids.length);\n        string memory namesString;\n        string memory urlsString;\n        \n        for (uint i = 0; i < ids.length; i++) {\n            prices[i] = diamondPrices[ids[i]];\n            namesString = concat(namesString, diamondNames[ids[i]], \"|\");\n            urlsString = concat(urlsString, diamondUrls[ids[i]], \"|\");\n        }\n        \n        return (ids, namesString, prices, urlsString);\n    }\n    \n    function getDiamond(uint id) view public \n        returns (uint, string, uint, address, string, string) \n    {\n        require(diamondPrices.length > id);\n        return (id, diamondNames[id], diamondPrices[id], diamondOwners[id],\n            diamondUrls[id], ownerNames[diamondOwners[id]]\n        );\n    }\n\n    function getDiamondDetails(uint id) view public \n        returns (uint, uint8, uint16, uint8, uint8, uint8)\n    {\n        return (id, diamondShapes[id], diamondCarats[id], diamondClaritys[id],\n            diamondCuts[id], diamondColors[id]\n        );\n    }\n    \n    function getLastDiamond() view public \n        returns (uint, string, uint, address, string) \n    {\n        uint id = diamondPrices.length - 1;\n        return (id, diamondNames[id], diamondPrices[id], diamondOwners[id],\n            diamondUrls[id]\n        );\n    }\n    \n    function getLastDiamondDetails() view public \n        returns (uint, uint8, uint16, uint8, uint8, uint8)\n    {\n        uint id = diamondPrices.length - 1;\n        return (id, diamondShapes[id], diamondCarats[id], diamondClaritys[id],\n            diamondCuts[id], diamondColors[id]);\n    }\n    \n    function kill() public {\n        // destroy contract and send all remaining funds to contract owner's address\n        require (msg.sender == contractOwner);\n        selfdestruct(contractOwner);\n    }\n    \n    function concat(string _base, string _value, string _separator) \n        pure \n        internal \n        returns (string) \n        {\n        bytes memory _baseBytes = bytes(_base);\n        bytes memory _valueBytes = bytes(_value);\n        \n        string memory _tmpValue = new string(_baseBytes.length + _valueBytes.length + 1);\n        bytes memory _newValue = bytes(_tmpValue);\n        \n        uint i;\n        uint j;\n        \n        for (i = 0; i < _baseBytes.length; i++) {\n            _newValue[j++] = _baseBytes[i];\n        }\n        \n        _newValue[j++] = bytes(_separator)[0];\n        \n        for (i = 0; i < _valueBytes.length; i++) {\n            _newValue[j++] = _valueBytes[i];\n        }\n        \n        return string(_newValue);\n    }\n}",
  "sourcePath": "/Users/william/Downloads/noncense/contracts/Diamonds.sol",
  "compiler": {
    "name": "solc",
    "version": "0.4.18+commit.9cf6e910.Emscripten.clang"
  },
  "schemaVersion": "1.0.1",
  "updatedAt": "2017-12-18T00:13:28.531Z"
}