{
  "contractName": "Diamonds",
  "abi": [
    {
      "constant": true,
      "inputs": [
        {
          "name": "id",
          "type": "uint256"
        }
      ],
      "name": "getDiamondDetails",
      "outputs": [
        {
          "name": "",
          "type": "uint256"
        },
        {
          "name": "",
          "type": "uint8"
        },
        {
          "name": "",
          "type": "uint16"
        },
        {
          "name": "",
          "type": "uint8"
        },
        {
          "name": "",
          "type": "uint8"
        },
        {
          "name": "",
          "type": "uint8"
        }
      ],
      "payable": false,
      "stateMutability": "view",
      "type": "function"
    },
    {
      "constant": true,
      "inputs": [],
      "name": "getLastDiamond",
      "outputs": [
        {
          "name": "",
          "type": "uint256"
        },
        {
          "name": "",
          "type": "string"
        },
        {
          "name": "",
          "type": "uint256"
        },
        {
          "name": "",
          "type": "address"
        },
        {
          "name": "",
          "type": "string"
        }
      ],
      "payable": false,
      "stateMutability": "view",
      "type": "function"
    },
    {
      "constant": false,
      "inputs": [],
      "name": "kill",
      "outputs": [],
      "payable": false,
      "stateMutability": "nonpayable",
      "type": "function"
    },
    {
      "constant": true,
      "inputs": [],
      "name": "getLastDiamondDetails",
      "outputs": [
        {
          "name": "",
          "type": "uint256"
        },
        {
          "name": "",
          "type": "uint8"
        },
        {
          "name": "",
          "type": "uint16"
        },
        {
          "name": "",
          "type": "uint8"
        },
        {
          "name": "",
          "type": "uint8"
        },
        {
          "name": "",
          "type": "uint8"
        }
      ],
      "payable": false,
      "stateMutability": "view",
      "type": "function"
    },
    {
      "constant": false,
      "inputs": [
        {
          "name": "id",
          "type": "uint256"
        },
        {
          "name": "price",
          "type": "uint256"
        }
      ],
      "name": "updatePrice",
      "outputs": [],
      "payable": false,
      "stateMutability": "nonpayable",
      "type": "function"
    },
    {
      "constant": true,
      "inputs": [],
      "name": "getOwnDiamonds",
      "outputs": [
        {
          "name": "",
          "type": "uint256[]"
        },
        {
          "name": "",
          "type": "string"
        },
        {
          "name": "",
          "type": "uint256[]"
        },
        {
          "name": "",
          "type": "string"
        }
      ],
      "payable": false,
      "stateMutability": "view",
      "type": "function"
    },
    {
      "constant": true,
      "inputs": [],
      "name": "getAllDiamonds",
      "outputs": [
        {
          "name": "",
          "type": "string"
        },
        {
          "name": "",
          "type": "uint256[]"
        },
        {
          "name": "",
          "type": "address[]"
        },
        {
          "name": "",
          "type": "string"
        }
      ],
      "payable": false,
      "stateMutability": "view",
      "type": "function"
    },
    {
      "constant": false,
      "inputs": [
        {
          "name": "id",
          "type": "uint256"
        }
      ],
      "name": "buy",
      "outputs": [],
      "payable": true,
      "stateMutability": "payable",
      "type": "function"
    },
    {
      "constant": true,
      "inputs": [
        {
          "name": "id",
          "type": "uint256"
        }
      ],
      "name": "getDiamond",
      "outputs": [
        {
          "name": "",
          "type": "uint256"
        },
        {
          "name": "",
          "type": "string"
        },
        {
          "name": "",
          "type": "uint256"
        },
        {
          "name": "",
          "type": "address"
        },
        {
          "name": "",
          "type": "string"
        }
      ],
      "payable": false,
      "stateMutability": "view",
      "type": "function"
    },
    {
      "constant": false,
      "inputs": [
        {
          "name": "name",
          "type": "string"
        },
        {
          "name": "price",
          "type": "uint256"
        },
        {
          "name": "url",
          "type": "string"
        },
        {
          "name": "shape",
          "type": "uint8"
        },
        {
          "name": "carat",
          "type": "uint16"
        },
        {
          "name": "clarity",
          "type": "uint8"
        },
        {
          "name": "cut",
          "type": "uint8"
        },
        {
          "name": "color",
          "type": "uint8"
        }
      ],
      "name": "createDiamond",
      "outputs": [],
      "payable": false,
      "stateMutability": "nonpayable",
      "type": "function"
    },
    {
      "inputs": [],
      "payable": false,
      "stateMutability": "nonpayable",
      "type": "constructor"
    }
  ],
  "bytecode": "0x6060604052341561000f57600080fd5b33600b60006101000a81548173ffffffffffffffffffffffffffffffffffffffff021916908373ffffffffffffffffffffffffffffffffffffffff16021790555061235e8061005f6000396000f3006060604052600436106100a4576000357c0100000000000000000000000000000000000000000000000000000000900463ffffffff1680630e065ccd146100a9578063287bf6d51461012357806341c0e1b51461025e57806362447dbe1461027357806382367b2d146102df57806394244ea11461030b578063a9856cf914610495578063d96a094a1461061f578063e3ed14db14610637578063ed03950214610780575b600080fd5b34156100b457600080fd5b6100ca6004808035906020019091905050610866565b604051808781526020018660ff1660ff1681526020018561ffff1661ffff1681526020018460ff1660ff1681526020018360ff1660ff1681526020018260ff1660ff168152602001965050505050505060405180910390f35b341561012e57600080fd5b610136610974565b60405180868152602001806020018581526020018473ffffffffffffffffffffffffffffffffffffffff1673ffffffffffffffffffffffffffffffffffffffff16815260200180602001838103835287818151815260200191508051906020019080838360005b838110156101b857808201518184015260208101905061019d565b50505050905090810190601f1680156101e55780820380516001836020036101000a031916815260200191505b50838103825284818151815260200191508051906020019080838360005b8381101561021e578082015181840152602081019050610203565b50505050905090810190601f16801561024b5780820380516001836020036101000a031916815260200191505b5097505050505050505060405180910390f35b341561026957600080fd5b610271610b6b565b005b341561027e57600080fd5b610286610c02565b604051808781526020018660ff1660ff1681526020018561ffff1661ffff1681526020018460ff1660ff1681526020018360ff1660ff1681526020018260ff1660ff168152602001965050505050505060405180910390f35b34156102ea57600080fd5b6103096004808035906020019091908035906020019091905050610d1d565b005b341561031657600080fd5b61031e610dc4565b6040518080602001806020018060200180602001858103855289818151815260200191508051906020019060200280838360005b8381101561036d578082015181840152602081019050610352565b50505050905001858103845288818151815260200191508051906020019080838360005b838110156103ac578082015181840152602081019050610391565b50505050905090810190601f1680156103d95780820380516001836020036101000a031916815260200191505b50858103835287818151815260200191508051906020019060200280838360005b838110156104155780820151818401526020810190506103fa565b50505050905001858103825286818151815260200191508051906020019080838360005b83811015610454578082015181840152602081019050610439565b50505050905090810190601f1680156104815780820380516001836020036101000a031916815260200191505b509850505050505050505060405180910390f35b34156104a057600080fd5b6104a861114e565b6040518080602001806020018060200180602001858103855289818151815260200191508051906020019080838360005b838110156104f45780820151818401526020810190506104d9565b50505050905090810190601f1680156105215780820380516001836020036101000a031916815260200191505b50858103845288818151815260200191508051906020019060200280838360005b8381101561055d578082015181840152602081019050610542565b50505050905001858103835287818151815260200191508051906020019060200280838360005b8381101561059f578082015181840152602081019050610584565b50505050905001858103825286818151815260200191508051906020019080838360005b838110156105de5780820151818401526020810190506105c3565b50505050905090810190601f16801561060b5780820380516001836020036101000a031916815260200191505b509850505050505050505060405180910390f35b6106356004808035906020019091905050611396565b005b341561064257600080fd5b6106586004808035906020019091905050611778565b60405180868152602001806020018581526020018473ffffffffffffffffffffffffffffffffffffffff1673ffffffffffffffffffffffffffffffffffffffff16815260200180602001838103835287818151815260200191508051906020019080838360005b838110156106da5780820151818401526020810190506106bf565b50505050905090810190601f1680156107075780820380516001836020036101000a031916815260200191505b50838103825284818151815260200191508051906020019080838360005b83811015610740578082015181840152602081019050610725565b50505050905090810190601f16801561076d5780820380516001836020036101000a031916815260200191505b5097505050505050505060405180910390f35b341561078b57600080fd5b610864600480803590602001908201803590602001908080601f0160208091040260200160405190810160405280939291908181526020018383808284378201915050505050509190803590602001909190803590602001908201803590602001908080601f0160208091040260200160405190810160405280939291908181526020018383808284378201915050505050509190803560ff1690602001909190803561ffff1690602001909190803560ff1690602001909190803560ff1690602001909190803560ff16906020019091905050611976565b005b6000806000806000808660068881548110151561087f57fe5b90600052602060002090602091828204019190069054906101000a900460ff166007898154811015156108ae57fe5b90600052602060002090601091828204019190066002029054906101000a900461ffff1660088a8154811015156108e157fe5b90600052602060002090602091828204019190069054906101000a900460ff1660098b81548110151561091057fe5b90600052602060002090602091828204019190069054906101000a900460ff16600a8c81548110151561093f57fe5b90600052602060002090602091828204019190069054906101000a900460ff1695509550955095509550955091939550919395565b600061097e6120a5565b6000806109896120a5565b60006001600280549050039050806000828154811015156109a657fe5b90600052602060002090016002838154811015156109c057fe5b9060005260206000209001546005848154811015156109db57fe5b906000526020600020900160009054906101000a900473ffffffffffffffffffffffffffffffffffffffff16600385815481101515610a1657fe5b9060005260206000209001838054600181600116156101000203166002900480601f016020809104026020016040519081016040528092919081815260200182805460018160011615610100020316600290048015610ab65780601f10610a8b57610100808354040283529160200191610ab6565b820191906000526020600020905b815481529060010190602001808311610a9957829003601f168201915b50505050509350808054600181600116156101000203166002900480601f016020809104026020016040519081016040528092919081815260200182805460018160011615610100020316600290048015610b525780601f10610b2757610100808354040283529160200191610b52565b820191906000526020600020905b815481529060010190602001808311610b3557829003601f168201915b5050505050905095509550955095509550509091929394565b600b60009054906101000a900473ffffffffffffffffffffffffffffffffffffffff1673ffffffffffffffffffffffffffffffffffffffff163373ffffffffffffffffffffffffffffffffffffffff16141515610bc757600080fd5b600b60009054906101000a900473ffffffffffffffffffffffffffffffffffffffff1673ffffffffffffffffffffffffffffffffffffffff16ff5b6000806000806000806000600160028054905003905080600682815481101515610c2857fe5b90600052602060002090602091828204019190069054906101000a900460ff16600783815481101515610c5757fe5b90600052602060002090601091828204019190066002029054906101000a900461ffff16600884815481101515610c8a57fe5b90600052602060002090602091828204019190069054906101000a900460ff16600985815481101515610cb957fe5b90600052602060002090602091828204019190069054906101000a900460ff16600a86815481101515610ce857fe5b90600052602060002090602091828204019190069054906101000a900460ff1696509650965096509650965050909192939495565b81600280549050118015610d965750600582815481101515610d3b57fe5b906000526020600020900160009054906101000a900473ffffffffffffffffffffffffffffffffffffffff1673ffffffffffffffffffffffffffffffffffffffff163373ffffffffffffffffffffffffffffffffffffffff16145b1515610da157600080fd5b80600283815481101515610db157fe5b9060005260206000209001819055505050565b610dcc6120b9565b610dd46120a5565b610ddc6120b9565b610de46120a5565b610dec6120b9565b610df46120b9565b610dfc6120a5565b610e046120a5565b6000600c60003373ffffffffffffffffffffffffffffffffffffffff1673ffffffffffffffffffffffffffffffffffffffff168152602001908152602001600020805480602002602001604051908101604052809291908181526020018280548015610e8f57602002820191906000526020600020905b815481526020019060010190808311610e7b575b505050505094508451604051805910610ea55750595b90808252806020026020018201604052509350600090505b84518110156111375760028582815181101515610ed657fe5b90602001906020020151815481101515610eec57fe5b9060005260206000209001548482815181101515610f0657fe5b906020019060200201818152505061101d8360008784815181101515610f2857fe5b90602001906020020151815481101515610f3e57fe5b90600052602060002090018054600181600116156101000203166002900480601f016020809104026020016040519081016040528092919081815260200182805460018160011615610100020316600290048015610fdd5780601f10610fb257610100808354040283529160200191610fdd565b820191906000526020600020905b815481529060010190602001808311610fc057829003601f168201915b50505050506040805190810160405280600181526020017f7c00000000000000000000000000000000000000000000000000000000000000815250611e27565b9250611128826003878481518110151561103357fe5b9060200190602002015181548110151561104957fe5b90600052602060002090018054600181600116156101000203166002900480601f0160208091040260200160405190810160405280929190818152602001828054600181600116156101000203166002900480156110e85780601f106110bd576101008083540402835291602001916110e8565b820191906000526020600020905b8154815290600101906020018083116110cb57829003601f168201915b50505050506040805190810160405280600181526020017f7c00000000000000000000000000000000000000000000000000000000000000815250611e27565b91508080600101915050610ebd565b848385849850985098509850505050505090919293565b6111566120a5565b61115e6120b9565b6111666120cd565b61116e6120a5565b6001600260056004838054600181600116156101000203166002900480601f01602080910402602001604051908101604052809291908181526020018280546001816001161561010002031660029004801561120b5780601f106111e05761010080835404028352916020019161120b565b820191906000526020600020905b8154815290600101906020018083116111ee57829003601f168201915b505050505093508280548060200260200160405190810160405280929190818152602001828054801561125d57602002820191906000526020600020905b815481526020019060010190808311611249575b50505050509250818054806020026020016040519081016040528092919081815260200182805480156112e557602002820191906000526020600020905b8160009054906101000a900473ffffffffffffffffffffffffffffffffffffffff1673ffffffffffffffffffffffffffffffffffffffff168152602001906001019080831161129b575b50505050509150808054600181600116156101000203166002900480601f0160208091040260200160405190810160405280929190818152602001828054600181600116156101000203166002900480156113815780601f1061135657610100808354040283529160200191611381565b820191906000526020600020905b81548152906001019060200180831161136457829003601f168201915b50505050509050935093509350935090919293565b61139e6120b9565b6000826002805490501180156113ce57506002838154811015156113be57fe5b9060005260206000209001543410155b15156113d957600080fd5b600c60006005858154811015156113ec57fe5b906000526020600020900160009054906101000a900473ffffffffffffffffffffffffffffffffffffffff1673ffffffffffffffffffffffffffffffffffffffff1673ffffffffffffffffffffffffffffffffffffffff16815260200190815260200160002080548060200260200160405190810160405280929190818152602001828054801561149c57602002820191906000526020600020905b815481526020019060010190808311611488575b50505050509150600090505b8151811015611593578282828151811015156114c057fe5b906020019060200201511415611586578160018351038151811015156114e257fe5b90602001906020020151600c60006005868154811015156114ff57fe5b906000526020600020900160009054906101000a900473ffffffffffffffffffffffffffffffffffffffff1673ffffffffffffffffffffffffffffffffffffffff1673ffffffffffffffffffffffffffffffffffffffff1681526020019081526020016000208281548110151561157257fe5b906000526020600020900181905550611593565b80806001019150506114a8565b600c60006005858154811015156115a657fe5b906000526020600020900160009054906101000a900473ffffffffffffffffffffffffffffffffffffffff1673ffffffffffffffffffffffffffffffffffffffff1673ffffffffffffffffffffffffffffffffffffffff16815260200190815260200160002080548091906001900361161f91906120e1565b5060058381548110151561162f57fe5b906000526020600020900160009054906101000a900473ffffffffffffffffffffffffffffffffffffffff1673ffffffffffffffffffffffffffffffffffffffff166108fc60028581548110151561168357fe5b9060005260206000209001549081150290604051600060405180830381858888f1935050505015156116b457600080fd5b336005848154811015156116c457fe5b906000526020600020900160006101000a81548173ffffffffffffffffffffffffffffffffffffffff021916908373ffffffffffffffffffffffffffffffffffffffff160217905550600c60003373ffffffffffffffffffffffffffffffffffffffff1673ffffffffffffffffffffffffffffffffffffffff168152602001908152602001600020805480600101828161175e919061210d565b916000526020600020900160008590919091505550505050565b60006117826120a5565b60008061178d6120a5565b856002805490501115156117a057600080fd5b856000878154811015156117b057fe5b90600052602060002090016002888154811015156117ca57fe5b9060005260206000209001546005898154811015156117e557fe5b906000526020600020900160009054906101000a900473ffffffffffffffffffffffffffffffffffffffff1660038a81548110151561182057fe5b9060005260206000209001838054600181600116156101000203166002900480601f0160208091040260200160405190810160405280929190818152602001828054600181600116156101000203166002900480156118c05780601f10611895576101008083540402835291602001916118c0565b820191906000526020600020905b8154815290600101906020018083116118a357829003601f168201915b50505050509350808054600181600116156101000203166002900480601f01602080910402602001604051908101604052809291908181526020018280546001816001161561010002031660029004801561195c5780601f106119315761010080835404028352916020019161195c565b820191906000526020600020905b81548152906001019060200180831161193f57829003601f168201915b505050505090509450945094509450945091939590929450565b600c60003373ffffffffffffffffffffffffffffffffffffffff1673ffffffffffffffffffffffffffffffffffffffff16815260200190815260200160002080548060010182816119c7919061210d565b91600052602060002090016000808054905090919091505550600080548060010182816119f49190612139565b916000526020600020900160008a90919091509080519060200190611a1a929190612165565b5050611af660018054600181600116156101000203166002900480601f016020809104026020016040519081016040528092919081815260200182805460018160011615610100020316600290048015611ab55780601f10611a8a57610100808354040283529160200191611ab5565b820191906000526020600020905b815481529060010190602001808311611a9857829003601f168201915b5050505050896040805190810160405280600181526020017f7c00000000000000000000000000000000000000000000000000000000000000815250611e27565b60019080519060200190611b0b929190612165565b5060028054806001018281611b20919061210d565b91600052602060002090016000899091909150555060058054806001018281611b4991906121e5565b9160005260206000209001600033909190916101000a81548173ffffffffffffffffffffffffffffffffffffffff021916908373ffffffffffffffffffffffffffffffffffffffff1602179055505060038054806001018281611bac9190612139565b916000526020600020900160008890919091509080519060200190611bd2929190612165565b5050611cae60048054600181600116156101000203166002900480601f016020809104026020016040519081016040528092919081815260200182805460018160011615610100020316600290048015611c6d5780601f10611c4257610100808354040283529160200191611c6d565b820191906000526020600020905b815481529060010190602001808311611c5057829003601f168201915b5050505050876040805190810160405280600181526020017f7c00000000000000000000000000000000000000000000000000000000000000815250611e27565b60049080519060200190611cc3929190612165565b5060068054806001018281611cd89190612211565b916000526020600020906020918282040191900687909190916101000a81548160ff021916908360ff1602179055505060078054806001018281611d1c919061224b565b916000526020600020906010918282040191900660020286909190916101000a81548161ffff021916908361ffff1602179055505060088054806001018281611d659190612211565b916000526020600020906020918282040191900685909190916101000a81548160ff021916908360ff1602179055505060098054806001018281611da99190612211565b916000526020600020906020918282040191900684909190916101000a81548160ff021916908360ff16021790555050600a8054806001018281611ded9190612211565b916000526020600020906020918282040191900683909190916101000a81548160ff021916908360ff160217905550505050505050505050565b611e2f6120a5565b611e37612285565b611e3f612285565b611e476120a5565b611e4f612285565b6000808995508894506001855187510101604051805910611e6d5750595b9080825280601f01601f19166020018201604052509350839250600091505b8551821015611f3f578582815181101515611ea357fe5b9060200101517f010000000000000000000000000000000000000000000000000000000000000090047f0100000000000000000000000000000000000000000000000000000000000000028382806001019350815181101515611f0257fe5b9060200101907effffffffffffffffffffffffffffffffffffffffffffffffffffffffffffff1916908160001a9053508180600101925050611e8c565b876000815181101515611f4e57fe5b9060200101517f010000000000000000000000000000000000000000000000000000000000000090047f0100000000000000000000000000000000000000000000000000000000000000028382806001019350815181101515611fad57fe5b9060200101907effffffffffffffffffffffffffffffffffffffffffffffffffffffffffffff1916908160001a905350600091505b8451821015612095578482815181101515611ff957fe5b9060200101517f010000000000000000000000000000000000000000000000000000000000000090047f010000000000000000000000000000000000000000000000000000000000000002838280600101935081518110151561205857fe5b9060200101907effffffffffffffffffffffffffffffffffffffffffffffffffffffffffffff1916908160001a9053508180600101925050611fe2565b8296505050505050509392505050565b602060405190810160405280600081525090565b602060405190810160405280600081525090565b602060405190810160405280600081525090565b815481835581811511612108578183600052602060002091820191016121079190612299565b5b505050565b815481835581811511612134578183600052602060002091820191016121339190612299565b5b505050565b8154818355818115116121605781836000526020600020918201910161215f91906122be565b5b505050565b828054600181600116156101000203166002900490600052602060002090601f016020900481019282601f106121a657805160ff19168380011785556121d4565b828001600101855582156121d4579182015b828111156121d35782518255916020019190600101906121b8565b5b5090506121e19190612299565b5090565b81548183558181151161220c5781836000526020600020918201910161220b9190612299565b5b505050565b81548183558181151161224657601f016020900481601f016020900483600052602060002091820191016122459190612299565b5b505050565b81548183558181151161228057600f016010900481600f0160109004836000526020600020918201910161227f9190612299565b5b505050565b602060405190810160405280600081525090565b6122bb91905b808211156122b757600081600090555060010161229f565b5090565b90565b6122e791905b808211156122e357600081816122da91906122ea565b506001016122c4565b5090565b90565b50805460018160011615610100020316600290046000825580601f10612310575061232f565b601f01602090049060005260206000209081019061232e9190612299565b5b505600a165627a7a72305820816594117a128c297a42b37b4d235bffc79947ee046cae644ac69464bc796ab50029",
  "source": "pragma solidity ^0.4.18;\n\ncontract Diamonds {\n  \n    // separate arrays for each diamond field. Index is the id\n    string[] diamondNames;\n    string diamondNamesString;\n    uint[] diamondPrices; // in Wei\n    string[] diamondUrls;\n    string diamondUrlsString;\n    address[] diamondOwners;\n    uint8[] diamondShapes;\n    uint16[] diamondCarats;\n    uint8[] diamondClaritys;\n    uint8[] diamondCuts;\n    uint8[] diamondColors;\n\n    address contractOwner;\n    \n    mapping(address => uint[]) ownerDiamondIds;\n    \n    function Diamonds() public {\n        // constructor function\n        contractOwner = msg.sender;\n    }\n    \n    function createDiamond(string name, uint price, string url, uint8 shape, \n        uint16 carat, uint8 clarity, uint8 cut, uint8 color) public \n    {\n        ownerDiamondIds[msg.sender].push(diamondNames.length);\n        diamondNames.push(name);\n        diamondNamesString = concat(diamondNamesString, name, \"|\");\n        diamondPrices.push(price);\n        diamondOwners.push(msg.sender);\n        diamondUrls.push(url);\n        diamondUrlsString = concat(diamondUrlsString, url, \"|\");\n        diamondShapes.push(shape);\n        diamondCarats.push(carat);\n        diamondClaritys.push(clarity);\n        diamondCuts.push(cut);\n        diamondColors.push(color);\n    }\n    \n    function buy(uint id) payable public {\n        // check for valid id and sufficient funds sent\n        require(diamondPrices.length > id && \n            msg.value >= diamondPrices[id]);\n        \n        // remove id from previous owner's array of diamond ids\n        uint[] memory ids = ownerDiamondIds[diamondOwners[id]];\n        for (uint i = 0; i < ids.length; i++) {\n            if (ids[i] == id) {\n                // move last id value to index of id\n                ownerDiamondIds[diamondOwners[id]][i] = ids[ids.length - 1];\n                break;\n            }\n        }\n        \n        // shorten previous owner's array of diamond ids by 1\n        ownerDiamondIds[diamondOwners[id]].length --;\n        \n         // transfer money to previous owner\n        diamondOwners[id].transfer(diamondPrices[id]);\n        \n        // change ownership\n        diamondOwners[id] = msg.sender;\n        ownerDiamondIds[msg.sender].push(id);\n    }\n\n    function updatePrice(uint id, uint price) public {\n        require(diamondPrices.length > id && \n            msg.sender == diamondOwners[id]);\n        \n        diamondPrices[id] = price;\n    }\n\n    function getAllDiamonds() view public \n        returns (string, uint[], address[], string) \n    {\n        return (diamondNamesString, diamondPrices, diamondOwners,\n            diamondUrlsString\n        );\n    }\n\n    function getOwnDiamonds() view public\n        returns (uint[], string, uint[], string) \n    {   \n        uint[] memory ids = ownerDiamondIds[msg.sender];\n        uint[] memory prices = new uint[](ids.length);\n        string memory namesString;\n        string memory urlsString;\n        \n        for (uint i = 0; i < ids.length; i++) {\n            prices[i] = diamondPrices[ids[i]];\n            namesString = concat(namesString, diamondNames[ids[i]], \"|\");\n            urlsString = concat(urlsString, diamondUrls[ids[i]], \"|\");\n        }\n        \n        return (ids, namesString, prices, urlsString);\n    }\n    \n    function getDiamond(uint id) view public \n        returns (uint, string, uint, address, string) \n    {\n        require(diamondPrices.length > id);\n        return (id, diamondNames[id], diamondPrices[id], diamondOwners[id],\n            diamondUrls[id]\n        );\n    }\n\n    function getDiamondDetails(uint id) view public \n        returns (uint, uint8, uint16, uint8, uint8, uint8)\n    {\n        return (id, diamondShapes[id], diamondCarats[id], diamondClaritys[id],\n            diamondCuts[id], diamondColors[id]\n        );\n    }\n    \n    function getLastDiamond() view public \n        returns (uint, string, uint, address, string) \n    {\n        uint id = diamondPrices.length - 1;\n        return (id, diamondNames[id], diamondPrices[id], diamondOwners[id],\n            diamondUrls[id]\n        );\n    }\n    \n    function getLastDiamondDetails() view public \n        returns (uint, uint8, uint16, uint8, uint8, uint8)\n    {\n        uint id = diamondPrices.length - 1;\n        return (id, diamondShapes[id], diamondCarats[id], diamondClaritys[id],\n            diamondCuts[id], diamondColors[id]);\n    }\n    \n    function kill() public {\n        // destroy contract and send all remaining funds to contract owner's address\n        require (msg.sender == contractOwner);\n        selfdestruct(contractOwner);\n    }\n    \n    function concat(string _base, string _value, string _separator) \n        pure \n        internal \n        returns (string) \n        {\n        bytes memory _baseBytes = bytes(_base);\n        bytes memory _valueBytes = bytes(_value);\n        \n        string memory _tmpValue = new string(_baseBytes.length + _valueBytes.length + 1);\n        bytes memory _newValue = bytes(_tmpValue);\n        \n        uint i;\n        uint j;\n        \n        for (i=0; i < _baseBytes.length; i++) {\n            _newValue[j++] = _baseBytes[i];\n        }\n        \n        _newValue[j++] = bytes(_separator)[0];\n        \n        for (i=0; i < _valueBytes.length; i++) {\n            _newValue[j++] = _valueBytes[i];\n        }\n        \n        return string(_newValue);\n    }\n}",
  "sourcePath": "/Users/william/Downloads/noncense/contracts/Diamonds.sol",
  "compiler": {
    "name": "solc",
    "version": "0.4.18+commit.9cf6e910.Emscripten.clang"
  },
  "schemaVersion": "1.0.1",
  "updatedAt": "2017-12-17T19:30:23.183Z"
}