{
  "contractName": "Diamonds",
  "abi": [
    {
      "constant": true,
      "inputs": [
        {
          "name": "",
          "type": "uint256"
        }
      ],
      "name": "allDiamonds",
      "outputs": [
        {
          "name": "id",
          "type": "uint256"
        },
        {
          "name": "price",
          "type": "uint256"
        },
        {
          "name": "ownerAddr",
          "type": "address"
        }
      ],
      "payable": false,
      "stateMutability": "view",
      "type": "function"
    },
    {
      "constant": false,
      "inputs": [],
      "name": "kill",
      "outputs": [],
      "payable": false,
      "stateMutability": "nonpayable",
      "type": "function"
    },
    {
      "constant": false,
      "inputs": [
        {
          "name": "price",
          "type": "uint256"
        }
      ],
      "name": "createDiamond",
      "outputs": [
        {
          "name": "",
          "type": "uint256"
        }
      ],
      "payable": false,
      "stateMutability": "nonpayable",
      "type": "function"
    },
    {
      "constant": false,
      "inputs": [
        {
          "name": "diamondId",
          "type": "uint256"
        }
      ],
      "name": "buy",
      "outputs": [],
      "payable": true,
      "stateMutability": "payable",
      "type": "function"
    },
    {
      "inputs": [],
      "payable": false,
      "stateMutability": "nonpayable",
      "type": "constructor"
    },
    {
      "anonymous": false,
      "inputs": [
        {
          "indexed": false,
          "name": "",
          "type": "uint256"
        },
        {
          "indexed": false,
          "name": "",
          "type": "uint256"
        },
        {
          "indexed": false,
          "name": "",
          "type": "address"
        }
      ],
      "name": "DiamondLogger",
      "type": "event"
    }
  ],
  "bytecode": "0x6060604052341561000f57600080fd5b33600160006101000a81548173ffffffffffffffffffffffffffffffffffffffff021916908373ffffffffffffffffffffffffffffffffffffffff1602179055506105ec8061005f6000396000f300606060405260043610610062576000357c0100000000000000000000000000000000000000000000000000000000900463ffffffff1680631e570dd41461006757806341c0e1b5146100d8578063b5a32636146100ed578063d96a094a14610124575b600080fd5b341561007257600080fd5b610088600480803590602001909190505061013c565b604051808481526020018381526020018273ffffffffffffffffffffffffffffffffffffffff1673ffffffffffffffffffffffffffffffffffffffff168152602001935050505060405180910390f35b34156100e357600080fd5b6100eb610195565b005b34156100f857600080fd5b61010e6004808035906020019091905050610228565b6040518082815260200191505060405180910390f35b61013a60048080359060200190919050506103e8565b005b60008181548110151561014b57fe5b90600052602060002090600302016000915090508060000154908060010154908060020160009054906101000a900473ffffffffffffffffffffffffffffffffffffffff16905083565b600160009054906101000a900473ffffffffffffffffffffffffffffffffffffffff1673ffffffffffffffffffffffffffffffffffffffff163373ffffffffffffffffffffffffffffffffffffffff16141561022657600160009054906101000a900473ffffffffffffffffffffffffffffffffffffffff1673ffffffffffffffffffffffffffffffffffffffff16ff5b565b6000806000805490509050600080548060010182816102479190610538565b916000526020600020906003020160006060604051908101604052808581526020018781526020013373ffffffffffffffffffffffffffffffffffffffff168152509091909150600082015181600001556020820151816001015560408201518160020160006101000a81548173ffffffffffffffffffffffffffffffffffffffff021916908373ffffffffffffffffffffffffffffffffffffffff1602179055505050507f68fbd1057e8027d898c27fce86b80a981acecc1fedceaab794402d6d0a02111a60008281548110151561031c57fe5b90600052602060002090600302016000015460008381548110151561033d57fe5b90600052602060002090600302016001015460008481548110151561035e57fe5b906000526020600020906003020160020160009054906101000a900473ffffffffffffffffffffffffffffffffffffffff16604051808481526020018381526020018273ffffffffffffffffffffffffffffffffffffffff1673ffffffffffffffffffffffffffffffffffffffff168152602001935050505060405180910390a180915050919050565b806000805490501180156104265750670de0b6b3a764000060008281548110151561040f57fe5b906000526020600020906003020160010154023410155b156105355760008181548110151561043a57fe5b906000526020600020906003020160020160009054906101000a900473ffffffffffffffffffffffffffffffffffffffff1673ffffffffffffffffffffffffffffffffffffffff166108fc670de0b6b3a764000060008481548110151561049d57fe5b906000526020600020906003020160010154029081150290604051600060405180830381858888f1935050505015156104d557600080fd5b336000828154811015156104e557fe5b906000526020600020906003020160020160006101000a81548173ffffffffffffffffffffffffffffffffffffffff021916908373ffffffffffffffffffffffffffffffffffffffff1602179055505b50565b81548183558181151161056557600302816003028360005260206000209182019101610564919061056a565b5b505050565b6105bd91905b808211156105b95760008082016000905560018201600090556002820160006101000a81549073ffffffffffffffffffffffffffffffffffffffff021916905550600301610570565b5090565b905600a165627a7a72305820764e21b258290d35bed6ef007c4caa794b45906808afa842dcbd15933fef5ff90029",
  "source": "pragma solidity ^0.4.0;\n\ncontract Diamonds {\n    struct Diamond {\n        uint id;\n        uint price; // in ether (should convert to Wei)\n        address ownerAddr;\n    }\n    \n    Diamond[] public allDiamonds; // array of Diamond structs\n    address owner;\n    \n    event DiamondLogger(uint, uint, address);\n    \n    function Diamonds() public {\n        owner = msg.sender;\n    }\n    \n    function createDiamond(uint price) public returns (uint) {\n        uint diamondId = allDiamonds.length;\n        allDiamonds.push(Diamond(diamondId, price, msg.sender));\n        DiamondLogger(allDiamonds[diamondId].id, allDiamonds[diamondId].price, allDiamonds[diamondId].ownerAddr);\n        return diamondId;\n    }\n    \n    function buy(uint diamondId) payable public {\n        //find diamond (diamondId should be index of diamond in allDiamonds)\n        if (allDiamonds.length > diamondId && \n            msg.value >= allDiamonds[diamondId].price * 1e18) {\n            allDiamonds[diamondId].ownerAddr.transfer(allDiamonds[diamondId].price * 1e18);\n            allDiamonds[diamondId].ownerAddr = msg.sender;\n        }\n    }\n    \n    function kill() public {\n        if (msg.sender == owner) \n          selfdestruct(owner);\n    }\n}",
  "sourcePath": "/Users/dramaze/Desktop/appacademy/noncense/contracts/William Contract/Diamonds.sol",
  "compiler": {
    "name": "solc",
    "version": "0.4.18+commit.9cf6e910.Emscripten.clang"
  },
  "schemaVersion": "1.0.1",
  "updatedAt": "2017-12-13T02:28:53.658Z"
}